S0240000736D617274667573696F6E6D73735F4D53535F434D335F305F6170702E737265634F
S315200000000000012099020020090300200B03002094
S315200000100D0300200F030020110300200000000024
S315200000200000000000000000000000001303002074
S3152000003015030020000000001703002019030020EC
S315200000401B0300201D0300201F0300202103002086
S315200000502303002025030020270300202903002056
S315200000602B0300202D030020E10600200D07002091
S3152000007033030020350300203703002039030020F6
S315200000803B0300203D0300203F03002041030020C6
S315200000904303002045030020470300204903002096
S315200000A04B030020000000000000000000000000BC
S315200000B00000000000000000000000004D030020AA
S315200000C04F03002051030020530300205503002036
S315200000D057030020590300205B0300205D03002006
S315200000E05F030020610300206303002065030020D6
S315200000F067030020690300206B0300206D030020A6
S315200001006F03002071030020730300207503002075
S3152000011077030020790300207B0300207D03002045
S315200001207F03002081030020830300208503002015
S3152000013087030020890300208B0300208D030020E5
S315200001408F030020910300209303002095030020B5
S3152000015097030020990300209B0300209D03002085
S315200001609F030020A1030020A3030020A503002055
S31520000170A7030020A9030020AB030020AD03002025
S31520000180AF030020B1030020B3030020B5030020F5
S31520000190B7030020B9030020BB030020BD030020C5
S315200001A0BF030020C1030020C3030020C503002095
S315200001B0C7030020C9030020CB030020CD03002065
S315200001C0CF030020D1030020D3030020D503002035
S315200001D0D7030020D9030020DB030020DD03002005
S315200001E0DF030020E1030020E3030020E5030020D5
S315200001F0E7030020E9030020EB030020ED030020A5
S31520000200EF030020F1030020F3030020F503002074
S31520000210F7030020F9030020FB030020FD03002044
S31520000220FF03002001040020030400200504002011
S3152000023007040020090400200B0400200D040020E0
S315200002400F040020110400201304002015040020B0
S3152000025017040020190400201B0400201D04002080
S315200002601F04002021040020230400202504002050
S3152000027027040020290400202B0400202D04002020
S315200002802F040020310400203304002035040020F0
S315200002903704002039040020684880476848002831
S315200002A00BD168486849694A884206D091421CBFEA
S315200002B050F8043B41F8043BF8D165486549664A45
S315200002C0884206D091421CBF50F8043B41F8043BBB
S315200002D0F8D162486249634A914218BF41F8040B3B
S315200002E0FAD100000000000000000000000000001D
S315200002F0DFF874010FF2030E00474FF000004FF0B5
S315200003000001DFF868F1FEE7FEE7FEE7FEE7FEE71D
S31520000310FEE7FEE7FEE7FEE7FEE7FEE7FEE7FEE78F
S31520000320FEE7FEE7FEE7FEE7FEE7FEE7FEE7FEE77F
S31520000330FEE7FEE7FEE7FEE7FEE7FEE7FEE7FEE76F
S31520000340FEE7FEE7FEE7FEE7FEE7FEE7FEE7FEE75F
S31520000350FEE7FEE7FEE7FEE7FEE7FEE7FEE7FEE74F
S31520000360FEE7FEE7FEE7FEE7FEE7FEE7FEE7FEE73F
S31520000370FEE7FEE7FEE7FEE7FEE7FEE7FEE7FEE72F
S31520000380FEE7FEE7FEE7FEE7FEE7FEE7FEE7FEE71F
S31520000390FEE7FEE7FEE7FEE7FEE7FEE7FEE7FEE70F
S315200003A0FEE7FEE7FEE7FEE7FEE7FEE7FEE7FEE7FF
S315200003B0FEE7FEE7FEE7FEE7FEE7FEE7FEE7FEE7EF
S315200003C0FEE7FEE7FEE7FEE7FEE7FEE7FEE7FEE7DF
S315200003D0FEE7FEE7FEE7FEE7FEE7FEE7FEE7FEE7CF
S315200003E0FEE7FEE7FEE7FEE7FEE7FEE7FEE7FEE7BF
S315200003F0FEE7FEE7FEE7FEE7FEE7FEE7FEE7FEE7AF
S31520000400FEE7FEE7FEE7FEE7FEE7FEE7FEE7FEE79E
S31520000410FEE7FEE7FEE7FEE7FEE7FEE7FEE7FEE78E
S31520000420FEE7FEE7FEE7FEE7FEE7FEE7FEE7FEE77E
S31520000430FEE7FEE7FEE7FEE7FEE7000039070020BD
S31520000440000000000000002000000020B40700206B
S31520000450B4070020B4070020B807002000000000E1
S31520000460B80700201008002045070020410500207D
S3152000047040F2B873C2F200031A780AB90120187044
S31520000480704700BF40F2B470C2F2000008B503689E
S315200004902BB140F20003C0F2000303B1984708BD18
S315200004A080B400AF40F20003C4F205034FF000020F
S315200004B01A60BD4680BC704780B400AF40F200038E
S315200004C0C4F205034FF001021A60BD4680BC704796
S315200004D080B400AF40F20403C4F205034FF00002DB
S315200004E01A60BD4680BC704780B400AF40F204035A
S315200004F0C4F205034FF001021A60BD4680BC704766
S3152000050080B483B000AF786040F20803C4F20503DC
S315200005107A681A6007F10C07BD4680BC704700BF99
S3152000052080B483B000AF786040F20C03C4F20503B8
S315200005307A681A6007F10C07BD4680BC704700BF79
S3152000054080B500AFFFF7ACFFFFF7C2FF4FF04000CA
S31520000550FFF7D6FF4FF04000FFF7E2FFFFF7ACFFB3
S31520000560FFF7C2FF4FF08000FFF7CAFF4FF0800071
S31520000570FFF7D6FF4FF00000FFF7C2FF4FF0000055
S31520000580FFF7CEFFFEE700BF80B483B000AF03467F
S31520000590FB804EF20013CEF20003B7F906204FEA95
S315200005A05212F98801F01F014FF0010000FA01F103
S315200005B002F1600243F8221007F10C07BD4680BC09
S315200005C0704700BF80B584B000AF78607A6840F28B
S315200005D0E473C2F200039A4207D07A6840F2BC73F1
S315200005E0C2F200039A4200D000BE7A6840F2E47359
S315200005F0C2F200039A4206D07A6840F2BC73C2F275
S3152000060000039A4267D17B681B681B7ADBB203F032
S315200006100F03FB73FB7B0C2B54D801A252F823F05B
S3152000062055060020C506002071060020C5060020BC
S315200006308D060020C5060020A9060020C50600203C
S31520000640C5060020C5060020C5060020C5060020D8
S315200006508D0600207B685B6A002B00D100BE7B687C
S315200006605B6A002B30D07B685B6A7868984732E0FB
S315200006707B681B6A002B00D100BE7B681B6A002B9F
S3152000068024D07B681B6A7868984724E07B68DB69FE
S31520000690002B00D100BE7B68DB69002B18D07B685D
S315200006A0DB697868984716E07B689B69002B00D148
S315200006B000BE7B689B69002B0CD07B689B697868A1
S315200006C0984708E000BE06E000BF04E000BF02E055
S315200006D000BF00E000BF07F11007BD4680BD00BF88
S315200006E0684620F007018D4689B500AF40F2E470D8
S315200006F0C2F20000FFF766FF4FF00A00FFF744FF43
S31520000700BD46BDE889408546704700BF684620F053
S3152000071007018D4689B500AF40F2BC70C2F20000D9
S31520000720FFF750FF4FF00B00FFF72EFFBD46BDE849
S3152000073089408546704700BF80B400AFBD4680BC67
S31520000740704700BF70B540F2AC7640F2AC75C2F28D
S315200007500006C2F20005761BB61006D0002455F816
S31520000760243001349847A642F9D840F2AC7540F2BD
S31520000770B076C2F20005C2F20006761B00F00AF837
S31520000780B61006D0002455F8243001349847A642E6
S31520000790F9D870BDF8B500BFF8BC08BC9E467047B6
S315200007A0F8B500BFF8BC08BC9E46704785040020FB
S309200007B0710400208A
S309200007B4000000001B
S705200002993F
