S0240000736D617274667573696F6E6D73735F4D53535F434D335F305F6170702E737265634F
S315200000000000012099020020090300200B03002094
S315200000100D0300200F030020110300200000000024
S315200000200000000000000000000000001303002074
S3152000003015030020000000001703002019030020EC
S315200000401B0300201D0300201F0300202103002086
S315200000502303002025030020270300202903002056
S315200000602B0300202D030020750E0020A10E00205A
S3152000007033030020350300203703002039030020F6
S315200000803B0300203D0300203F03002041030020C6
S315200000904303002045030020470300204903002096
S315200000A04B030020000000000000000000000000BC
S315200000B00000000000000000000000004D030020AA
S315200000C04F03002051030020530300205503002036
S315200000D057030020590300205B0300205D03002006
S315200000E05F030020610300206303002065030020D6
S315200000F067030020690300206B0300206D030020A6
S315200001006F03002071030020730300207503002075
S3152000011077030020790300207B0300207D03002045
S315200001207F03002081030020830300208503002015
S3152000013087030020890300208B0300208D030020E5
S315200001408F030020910300209303002095030020B5
S3152000015097030020990300209B0300209D03002085
S315200001609F030020A1030020A3030020A503002055
S31520000170A7030020A9030020AB030020AD03002025
S31520000180AF030020B1030020B3030020B5030020F5
S31520000190B7030020B9030020BB030020BD030020C5
S315200001A0BF030020C1030020C3030020C503002095
S315200001B0C7030020C9030020CB030020CD03002065
S315200001C0CF030020D1030020D3030020D503002035
S315200001D0D7030020D9030020DB030020DD03002005
S315200001E0DF030020E1030020E3030020E5030020D5
S315200001F0E7030020E9030020EB030020ED030020A5
S31520000200EF030020F1030020F3030020F503002074
S31520000210F7030020F9030020FB030020FD03002044
S31520000220FF03002001040020030400200504002011
S3152000023007040020090400200B0400200D040020E0
S315200002400F040020110400201304002015040020B0
S3152000025017040020190400201B0400201D04002080
S315200002601F04002021040020230400202504002050
S3152000027027040020290400202B0400202D04002020
S315200002802F040020310400203304002035040020F0
S315200002903704002039040020684880476848002831
S315200002A00BD168486849694A884206D091421CBFEA
S315200002B050F8043B41F8043BF8D165486549664A45
S315200002C0884206D091421CBF50F8043B41F8043BBB
S315200002D0F8D162486249634A914218BF41F8040B3B
S315200002E0FAD100000000000000000000000000001D
S315200002F0DFF874010FF2030E00474FF000004FF0B5
S315200003000001DFF868F1FEE7FEE7FEE7FEE7FEE71D
S31520000310FEE7FEE7FEE7FEE7FEE7FEE7FEE7FEE78F
S31520000320FEE7FEE7FEE7FEE7FEE7FEE7FEE7FEE77F
S31520000330FEE7FEE7FEE7FEE7FEE7FEE7FEE7FEE76F
S31520000340FEE7FEE7FEE7FEE7FEE7FEE7FEE7FEE75F
S31520000350FEE7FEE7FEE7FEE7FEE7FEE7FEE7FEE74F
S31520000360FEE7FEE7FEE7FEE7FEE7FEE7FEE7FEE73F
S31520000370FEE7FEE7FEE7FEE7FEE7FEE7FEE7FEE72F
S31520000380FEE7FEE7FEE7FEE7FEE7FEE7FEE7FEE71F
S31520000390FEE7FEE7FEE7FEE7FEE7FEE7FEE7FEE70F
S315200003A0FEE7FEE7FEE7FEE7FEE7FEE7FEE7FEE7FF
S315200003B0FEE7FEE7FEE7FEE7FEE7FEE7FEE7FEE7EF
S315200003C0FEE7FEE7FEE7FEE7FEE7FEE7FEE7FEE7DF
S315200003D0FEE7FEE7FEE7FEE7FEE7FEE7FEE7FEE7CF
S315200003E0FEE7FEE7FEE7FEE7FEE7FEE7FEE7FEE7BF
S315200003F0FEE7FEE7FEE7FEE7FEE7FEE7FEE7FEE7AF
S31520000400FEE7FEE7FEE7FEE7FEE7FEE7FEE7FEE79E
S31520000410FEE7FEE7FEE7FEE7FEE7FEE7FEE7FEE78E
S31520000420FEE7FEE7FEE7FEE7FEE7FEE7FEE7FEE77E
S31520000430FEE7FEE7FEE7FEE7FEE70000CD0E002022
S31520000440000000000000002000000020A42D002055
S31520000450A42D0020A42D0020C4320020000000007E
S31520000460C4320020583300201111002075050020C9
S3152000047043F2C423C2F200031A780AB90120187085
S31520000480704700BF42F6A450C2F2000008B50368C8
S315200004902BB140F20003C0F2000303B1984708BD18
S315200004A080B400AF40F20003C4F205034FF000020F
S315200004B01A60BD4680BC704780B400AF40F200038E
S315200004C0C4F205034FF001021A60BD4680BC704796
S315200004D080B400AF40F20403C4F205034FF00002DB
S315200004E01A60BD4680BC704780B400AF40F204035A
S315200004F0C4F205034FF001021A60BD4680BC704766
S3152000050080B483B000AF786040F20803C4F20503DC
S315200005107A681A6007F10C07BD4680BC704700BF99
S3152000052080B483B000AF786040F20C03C4F20503B8
S315200005307A681A6007F10C07BD4680BC704700BF79
S3152000054080B586B000AF786007F10C03786819464D
S315200005504FF0080200F0BAFA03467B617B69002B54
S3152000056004DD07F10C03184600F036FE07F11807E4
S31520000570BD4680BD80B500AF43F20430C2F2000014
S315200005804FF416514FF0030200F02CF943F20430D9
S31520000590C2F2000040F24151C2F200014FF00002C7
S315200005A000F014FCFFF77CFFFFF792FF4FF04000AE
S315200005B0FFF7A6FF4FF04000FFF7B2FFFFF77CFFE3
S315200005C0FFF792FF4FF08000FFF79AFF4FF0800071
S315200005D0FFF7A6FF4FF00000FFF792FF4FF0000055
S315200005E0FFF79EFFFEE700BF80B483B000AF7860C0
S315200005F04FF0FF33184607F10C07BD4680BC704705
S3152000060080B483B000AF7860FEE700BF80B483B0CB
S3152000061000AF786039603B684FF400525A604FF063
S315200006200003184607F10C07BD4680BC704700BF83
S3152000063080B483B000AF78604FF00103184607F10D
S315200006400C07BD4680BC704780B485B000AFF8600B
S31520000650B9607A604FF00003184607F11407BD46CB
S3152000066080BC704780B485B000AFF860B9607A600E
S315200006704FF00003184607F11407BD4680BC7047AB
S3152000068080B584B000AFF860B9607A603B6043F211
S31520000690C823C2F200031B68002B10D143F22C3072
S315200006A0C2F200004FF461414FF0030200F09AF8C5
S315200006B043F2C823C2F200034FF001021A603B68DE
S315200006C043F22C30C2F2000079681A4600F08CF909
S315200006D03B68184607F11007BD4680BD80B584B03B
S315200006E000AF786043F2CC23C2F200031B68002BD4
S315200006F008D143F2CC23C2F2000343F25832C2F2AD
S3152000070000021A6043F2CC23C2F200031B68BB60CE
S31520000710EFF30883FB6043F2CC23C2F200031A688E
S315200007207B681A44FB689A420FD94FF000004FF0BD
S31520000730010142F6EC42C2F200024FF01903FFF724
S315200007409FFF4FF00100FFF75BFF43F2CC23C2F27D
S3152000075000031A687B681A4443F2CC23C2F20003D2
S315200007601A60BB68184607F11007BD4680BD00BF5A
S3152000077080B483B000AF0346FB804EF20013CEF266
S315200007800003B7F906204FEA5212F98801F01F013B
S315200007904FF0010000FA01F143F8221007F10C078F
S315200007A0BD4680BC704700BF80B483B000AF03460F
S315200007B0FB804EF20013CEF20003B7F906204FEA73
S315200007C05212F98801F01F014FF0010000FA01F1E1
S315200007D002F1600243F8221007F10C07BD4680BCE7
S315200007E0704700BF80B588B000AFF860B960134687
S315200007F0FB714FF00103FB824FF00003BB61FA68E7
S3152000080043F22C33C2F200039A4207D0FA6843F22D
S315200008100433C2F200039A4200D000BEBB68002B0C
S3152000082000D100BE00F058FBFA6843F22C33C2F226
S3152000083000039A422ED1FB684FF080421A60FB6873
S315200008404FF084425A60FB684FF00A021A8142F642
S31520000850B053C2F200031B68BB6142F20003CEF222
S31520000860040342F20002CEF20402126B42F080022E
S315200008701A634FF00A00FFF797FF42F20003CEF209
S31520000880040342F20002CEF20402126B22F080022E
S315200008901A6331E0FA6840F20003C4F201031360E0
S315200008A0FA6840F20003C4F220235360FB684FF03D
S315200008B00B021A8142F6B453C2F200031B68BB61D5
S315200008C042F20003CEF2040342F20002CEF2040208
S315200008D0126B42F480721A634FF00B00FFF764FF2D
S315200008E042F20003CEF2040342F20002CEF20402E8
S315200008F0126B22F480721A63FB681B684FF00002A9
S315200009001A71BB68002B21D0BA69BB68B2FBF3F31E
S31520000910FB61FB6903F00803002B06D0FB694FEA55
S31520000920131303F10103FB6103E0FB694FEA131381
S31520000930FB61FA694FF6FF739A4200D900BEFA6945
S315200009404FF6FF739A4201D8FB69FB82FB685B680E
S315200009504FF00102C3F89C21FB681B68FA8A4FEA14
S31520000960122292B2D2B21A71FB681B68FA8AD2B2EC
S315200009701A70FB685B684FF00002C3F89C21FB6885
S315200009801B68FA791A73FB681B684FF00E021A72FD
S31520000990FB685B684FF00002C3F81022FB684FF03B
S315200009A000021A61FB684FF00002DA60FB684FF024
S315200009B000025A61FB684FF00002DA61FA6840F6DD
S315200009C0C543C2F200031362FB684FF000029A612E
S315200009D0FB684FF000025A62FB684FF000029A72E1
S315200009E007F12007BD4680BD80B489B000AFF8600E
S315200009F0B9607A604FF000033B61FA6843F22C330A
S31520000A00C2F200039A4207D0FA6843F20433C2F2D4
S31520000A1000039A4200D000BEBB68002B00D100BE66
S31520000A207B68002B00D100BEFA6843F22C33C2F259
S31520000A3000039A4206D0FA6843F20433C2F2000356
S31520000A409A423DD1BB68002B3AD07B68002B37D029
S31520000A50FB681B681B7DFB76FB689A7AFB7E42EA65
S31520000A600303DAB2FB689A72FB7E03F02003002BA5
S31520000A7023D04FF01003FB617B680F2B01D87B68D6
S31520000A80FB614FF000037B610EE0FB681B68B968D1
S31520000A903A690A4412781A703B6903F101033B61F3
S31520000AA07B6903F101037B617A69FB699A42ECD386
S31520000AB07A687B69C3EB02037B607B68002BC7D116
S31520000AC007F12407BD4680BC704700BF80B487B0BD
S31520000AD000AFF860B9607A604FF000033B614FF0D9
S31520000AE00003FB75FA6843F22C33C2F200039A42E4
S31520000AF007D0FA6843F20433C2F200039A4200D0C8
S31520000B0000BEBB68002B00D100BE7B68002B00D145
S31520000B1000BEFA6843F22C33C2F200039A4206D092
S31520000B20FA6843F20433C2F200039A4234D1BB6816
S31520000B30002B31D07B68002B2ED0FB681B681B7DD9
S31520000B40FB75FB689A7AFB7D42EA0303DAB2FB68FF
S31520000B509A7217E0BA683B691344FA6812681278E9
S31520000B60D2B21A703B6903F101033B61FB681B6833
S31520000B701B7DFB75FB689A7AFB7D42EA0303DAB29A
S31520000B80FB689A72FB7D03F00103DBB2002B03D0D6
S31520000B903A697B689A42DDD33B69184607F11C0700
S31520000BA0BD4680BC704700BF80B584B000AF78607A
S31520000BB07A6843F22C33C2F200039A4207D07A684D
S31520000BC043F20433C2F200039A4200D000BE7A6890
S31520000BD043F22C33C2F200039A4206D07A6843F2DB
S31520000BE00433C2F200039A4267D17B681B681B7AE2
S31520000BF0DBB203F00F03FB73FB7B0C2B54D801A253
S31520000C0052F823F0390C0020A90C0020550C0020A6
S31520000C10A90C0020710C0020A90C00208D0C0020AE
S31520000C20A90C0020A90C0020A90C0020A90C00204A
S31520000C30A90C0020710C00207B685B6A002B00D178
S31520000C4000BE7B685B6A002B30D07B685B6A786865
S31520000C50984732E07B681B6A002B00D100BE7B6878
S31520000C601B6A002B24D07B681B6A7868984724E08F
S31520000C707B68DB69002B00D100BE7B68DB69002B1B
S31520000C8018D07B68DB697868984716E07B689B6993
S31520000C90002B00D100BE7B689B69002B0CD07B68A3
S31520000CA09B697868984708E000BE06E000BF04E02C
S31520000CB000BF02E000BF00E000BF07F11007BD46FD
S31520000CC080BD00BF80B487B000AF78607A6843F2F9
S31520000CD02C33C2F200039A4207D07A6843F20433D7
S31520000CE0C2F200039A4200D000BE7B68DB68002B6C
S31520000CF000D100BE7B681B69002B00D100BE7A683C
S31520000D0043F22C33C2F200039A4206D07A6843F2A9
S31520000D100433C2F200039A4252D17B68DB68002B6F
S31520000D204ED07B681B69002B4AD07B681B681B7DD5
S31520000D30FB727B689A7AFB7A42EA0303DAB27B6813
S31520000D409A72FB7A03F02003002B29D04FF0100370
S31520000D503B617B681A697B685B69C3EB02037B6135
S31520000D607B690F2B01D87B693B614FF00003FB6049
S31520000D7012E07B681B687A68D1687A6852690A44EF
S31520000D8012781A707B685B6903F101027B685A61ED
S31520000D90FB6803F10103FB60FA683B699A42E8D3DA
S31520000DA07B685A697B681B699A4209D17B684FF038
S31520000DB000021A617B685B684FF00002C3F884204A
S31520000DC007F11C07BD4680BC704700BF80B584B0C4
S31520000DD000AFF860B9601346FB71FA6843F22C3312
S31520000DE0C2F200039A4207D0FA6843F20433C2F2F1
S31520000DF000039A4200D000BEBB68002B00D100BE83
S31520000E00FB79C02B00D900BEFA6843F22C33C2F21C
S31520000E1000039A4206D0FA6843F20433C2F2000372
S31520000E209A4223D1BB68002B20D0FB79C02B1DD83A
S31520000E30FB68BA68DA61FB681A68FB7903F0C003BD
S31520000E4043F00A03DBB21372FB681B891BB21846F8
S31520000E50FFF7AAFCFB685B684FF00102C3F880200D
S31520000E60FB681B891BB21846FFF782FC07F11007A7
S31520000E70BD4680BD684620F007018D4689B500AF86
S31520000E8043F22C30C2F20000FFF78EFE4FF00A002C
S31520000E90FFF78AFCBD46BDE889408546704700BFFE
S31520000EA0684620F007018D4689B500AF43F204302D
S31520000EB0C2F20000FFF778FE4FF00B00FFF774FC3C
S31520000EC0BD46BDE889408546704700BF80B400AF67
S31520000ED0BD4680BC704700BF80B58AB000AF42F6E1
S31520000EE00853C2F20003BC460FCB8CE80F0042F237
S31520000EF00003CEF204039B6C4FEA930303F0030333
S31520000F004FEA830307F12802134453F8283C3B6138
S31520000F1042F20003CEF204039B6C4FEA131303F054
S31520000F2003034FEA830307F12802134453F8283CAE
S31520000F307B6142F20003CEF204039B6C4FEA9313CB
S31520000F4003F003034FEA830307F12802134453F8FF
S31520000F50283CBB6142F20003CEF20403DB6C4FEA6D
S31520000F60132303F01F033B6242F20003CEF2040375
S31520000F70DB6C4FEA533303F001037B623B6A03F1D8
S31520000F800103FB617B6A002B03D0FB694FEA430315
S31520000F90FB6100F049F8024642F6AC53C2F2000368
S31520000FA01A6042F6AC53C2F200031A683B69B2FBE0
S31520000FB0F3F242F6B053C2F200031A6042F6AC5383
S31520000FC0C2F200031A687B69B2FBF3F242F6B4530D
S31520000FD0C2F200031A6042F6AC53C2F200031A684A
S31520000FE0BB69B2FBF3F242F6B853C2F200031A60B1
S31520000FF042F6AC53C2F200031A68FB69B2FBF3F265
S3152000100042F6BC53C2F200031A6042F6AC53C2F257
S3152000101000031A6842F6A853C2F200031A6007F1C9
S315200010202807BD4680BD00BF80B48BB000AF4FF00F
S3152000103000037B6040F61C03C6F20803BB6040F247
S315200010403023C6F20803FB60FB681B6823F070435D
S315200010503B613A6941F2CF13C0F2A1539A4208D1BB
S315200010604EF62C73C6F201037B617B691B687B609D
S315200010703DE0BB681A6844F24133C4F654439A42B1
S3152000108035D140F64003C6F20803BB61BB691B6835
S31520001090FB61FB6923F07F43FB61FA6940F2003371
S315200010A0C0F201039A4222D9FA694FF6FF73C0F2C1
S315200010B001039A4208D841F22C63C6F208033B6228
S315200010C03B6A1B687B6012E0FA694FF6FF73C0F239
S315200010D002039A4208D841F6AC63C6F208037B6243
S315200010E07B6A1B687B6002E04FF000037B607B68B5
S315200010F0002B05D100BE47F64003C0F27D137B606E
S315200011007B68184607F12C07BD4680BC704700BF98
S3152000111070B542F69C5642F69C55C2F20006C2F2C3
S315200011200005761BB61006D0002455F8243001346D
S315200011309847A642F9D842F69C5542F6A056C2F2E6
S315200011400005C2F20006761B01F01CFEB61006D082
S31520001150002455F8243001349847A642F9D870BDAA
S3152000116030B5044689B008460D4600F03DF842F6F3
S3152000117020530195C2F2000303930290431C079368
S315200011800123049301AB0593022306930CB1A369B3
S31520001190EBB142F6C0532046C2F200031B689B689F
S315200011A09A8912F4005F01BF42F400529A81596E67
S315200011B021F40052A16808BF5A6605AA00F028F952
S315200011C0002814BF4FF0FF300A2009B030BD20465A
S315200011D000F0EEF8DDE700BF42F6C0530146C2F24A
S315200011E000031868BCE700BF20F0030110F00300DD
S315200011F0C0F1000051F8043B00F1040C4FEACC0C7E
S315200012006FF000021CBF22FA0CF213434FF0010CC0
S315200012104CEA0C2C4CEA0C4CA3EB0C0222EA0302FF
S3152000122012EACC1204BF51F8043B0430F4D013F078
S31520001230FF0F1FBF013013F47F4F013013F47F0FD0
S3152000124018BF0130704700BF704700BF704700BF0E
S31520001250704700BF704700BF0020704700207047CE
S3152000126042F6C05341F25D21C2F20003C2F20001F0
S31520001270186800F091BA00BF42F6C05341F25921D6
S31520001280C2F20003C2F20001186800F085BA00BF5E
S3152000129042F27571C2F2000100F07EBA42F618538E
S315200012A0C2F200031868F3E710B5044600235C3049
S315200012B0A1811946E281082223606360A3606366E8
S315200012C023616361A36100F0BDFE42F2695042F2E0
S315200012D02D5142F2055242F2FD43C2F20000C2F203
S315200012E00001C2F20002C2F200036062A162E26261
S315200012F02363246210BD00BF70B568250E4605FB2A
S3152000130001F505F10C0100F06DFA044648B100F133
S315200013100C03002146602A4618462160A36000F08F
S3152000132091FE204670BD00BF42F61853C2F200035C
S3152000133070B51D680646AB69002B2AD0D8356B6878
S31520001340AC68013B03D520E06834013B1DD4B4F9D9
S315200013500C20002AF8D100254FF0FF33656604F1F2
S315200013605C00E38129464FF001032560A381082212
S31520001370A560656025616561A56100F063FEE56491
S315200013806563A563A564204670BD286828B1054617
S31520001390D5E7284600F00CF8D0E730460421FFF7C1
S315200013A0ABFF28600028F2D10C2304463360EAE71D
S315200013B070B58669044606B170BD41F291230125B8
S315200013C0C2F20003C0F8D8608362C0F8DC60C0F8BF
S315200013D0E0608561FFF7A8FF60602046FFF7A4FF65
S315200013E0A0602046FFF7A0FF324604212346E06096
S315200013F06068FFF759FF2A46A06809212346FFF7B0
S3152000140053FF2346E06812210222BDE870404BE7D5
S315200014102DE9F04F936885B090460C460390002B3B
S3152000142064D088891FFA80FA1AF0080F00F0A0808D
S315200014300B69002B00F09C801AF0020BD8F80050A4
S315200014401CBF4FF0000A574636D11AF0010A1DBFBD
S31520001450DC46D9465F46564652D126B380B2A768A7
S3152000146010F4007F00F08F80BE42BB4680F0A7803C
S3152000147020683746B3465A46514600F087FDA26893
S315200014802368B146D71BA76037465B442360D8F84C
S315200014900830C9EB0606CA44DF1BC8F808702FB30C
S315200014A0A089002EDAD1D5F800A06E680835D4E7D9
S315200014B0D5F800A06F680835B7F5806F34BF3B4676
S315200014C04FF4806352460398002FF1D0A66A216A12
S315200014D0B04700288244C0EB070740F3EC80D8F8D9
S315200014E00830181AC8F808000028E5D1002005B0F1
S315200014F0BDE8F08FD5F800904FF0000C6F680835E6
S31520001500002FF7D0BCF1000F00F0B5806369BB4512
S3152000151034BFDA46BA46A668206822699E199042E8
S3152000152094BF00220122B245D4BF002202F001025C
S31520001530002A40F0AE809A45C0F28280A66A4A46CA
S31520001540CDF804C00398216AB047DDF804C0061E12
S3152000155040F3B180BBEB060B00F08680D8F808304C
S31520001560B144BF1B9E1BC8F80860002EC8D1BDE73A
S315200015700398214601F00AF8002840F0D480A0897B
S315200015801FFA80FA58E72068B9462369984294BF23
S3152000159000230123B7422CBF002303F00103002BB5
S315200015A040F09D8063699E42C0F08C80A76A5246B7
S315200015B00398216AB847071E7DDDB94667E710F410
S315200015C0906F08BF20683FF456AF6269216923688F
S315200015D002EB42095B1A09EBD97903F1010CB444F9
S315200015E04FEA6909E1454A463CBFE1464A4610F4BE
S315200015F0806F00F0838011460398029300F0F2F882
S31520001600029B002800F099801A46216902930190D6
S3152000161000F0F4FBA289029BDDF804C022F490625C
S3152000162042F08002A281C3EB09020CEB030037468D
S31520001630B346A260C4F810C02060C4F814901AE71C
S31520001640524649465646CDF804C000F09FFCA26893
S315200016502368BBEB060BCAEB0202DDF804C0534439
S31520001660A26023607FF47AAF0398214601F08AF8BE
S3152000167008BBDC4672E748460A213A4600F084FB5E
S3152000168000284BD000F1010B4FF0010CC9EB0B0BDE
S315200016903CE749463246CDF804C000F077FC236883
S315200016A0214603989B19236001F06CF8DDF804C0ED
S315200016B000283FF44FAFA3894FF0FF3043F040039B
S315200016C0A38114E73246514600F060FCA2682368E5
S315200016D03746921BB1469B19A2602360D7E6514636
S315200016E03A4600F053FC236803982146DB19236011
S315200016F001F048F800283FF4CAAEDCE703980293CD
S3152000170000F00EFD029B844600288CD121690398A7
S3152000171001F048F903990C230B60CCE707F1010B84
S315200017204FF0010CF2E603990922A3894FF0FF300E
S3152000173043F040030A60A381D9E6039A0C23136081
S31520001740B9E700BF2DE9F84507468A46FFF77CFD35
S3152000175017F1D80608BFB04618D04FF000087568B4
S31520001760B468013D0FD4B4F90C304BB1B4F90E3046
S3152000177021463846B3F1FF3F02D0D04748EA000859
S315200017806834013DEFD53668002EE8D1FFF75EFDBF
S315200017904046BDE8F88500BF2DE9F041064688465B
S315200017A0FFF752FDD83608BF374615D00027756893
S315200017B0B468013D0DD4B4F90C303BB1B4F90E3008
S315200017C02046B3F1FF3F01D0C04707436834013DAF
S315200017D0F1D53668002EEAD1FFF738FD3846BDE848
S315200017E0F08100BF2DE9F04F01F10B04162C83B0D8
S315200017F006462FD8002310248C422CBF194643F0CE
S315200018000101002930D1304600F086FCB4F5FC7F7A
S315200018102ED24FEAD40E42F6B465C2F2000505EB8D
S31520001820CE02D368934200F006825A6803F1080577
S31520001830D968304622F0030C9A6863445C688A6053
S3152000184044F00104D1605C6000F068FC284603B0D7
S31520001850BDE8F08F24F00704E30F8C422CBF194615
S3152000186043F001010029CED00C2300253360EDE79B
S315200018705FEA542E04BF4FEAD40E4FEACE0040F062
S31520001880908042F6B465C2F200052818C3689842D3
S3152000189006D10DE0002A80F26F81DB68984207D0DE
S315200018A0596821F003010A1B0F2AF3DD0EF1FF3ED2
S315200018B00EF1010E42F6B467C2F2000707F10801E5
S315200018C08B68994208BF7A6826D05A6822F0030CA2
S315200018D0C4EB0C020F2A00F39481002AC9608960A8
S315200018E080F29980BCF5007F80F065814FEADC0CA0
S315200018F04FF0010A7A6807EBCC004FEAAC0C0AFAE3
S315200019000CFCD860D0F808804CEA02027A60C3F852
S315200019100880C8F80C3083604FF0010C4FEAAE0304
S315200019200CFA03FC944500F2828012EA0C0F08D1CF
S315200019302EF0030E4FEA4C0C0EF1040E12EA0C0F99
S31520001940F8D007EBCE09F246C846D8F80C309845B1
S3152000195007D168E1002A80F27881DB68984500F09B
S315200019606281586820F00300021B0F2AF2DD1D4613
S315200019701F19D3F80CC044F0010E55F8084F304615
S31520001980BA5042F00102C3F804E0CCF80840C4F88B
S315200019900CC08F60CF607A60B960F96000F0BEFB42
S315200019A054E7BEF1040F9EBF4FEA941E0EF1380E87
S315200019B04FEACE007FF665AFBEF1140F9CBF0EF145
S315200019C05B0E4FEACE007FF65CAFBEF1540F9EBF92
S315200019D04FEA143E0EF16E0E4FEACE007FF651AF5F
S315200019E0BEF5AA7F9EBF4FEAD43E0EF1770E4FEA90
S315200019F0CE007FF646AF40F254539E4595BF4FEA40
S31520001A00944E4FF47C700EF17C0E4FF07E0E98BFF4
S31520001A104FEACE0035E703EB0C0203F1080530460A
S31520001A20536843F00103536000F078FB0EE7D7F8C4
S31520001A300880D8F8043023F00309C4EB09024C458A
S31520001A4094BF002301230F2AD8BF43F00103002BA4
S31520001A5000F0A18043F2D02BD5F80824C2F2000B67
S31520001A60DBF8003010331B19B2F1FF3F06D003F527
S31520001A707E631F3323F47E6323F01F03194630460B
S31520001A80019300F027FD019BB0F1FF3F824600F055
S31520001A90F48008EB0901814200F2EC80DBF8042097
S31520001AA09A185145CBF8042000F04581D5F8085402
S31520001AB042F6B460C2F20000B5F1FF3F08BFC0F89D
S31520001AC008A403D05244511ACBF804101AF0070583
S31520001AD0304617BFC5F108054FF48055AA4405F5D1
S31520001AE0805553441B051B0DED1A294600F0F2FCC8
S31520001AF0B0F1FF3F00F02C81CAEB0001491941F0FB
S31520001B000101DBF8042043F2D023C7F808A0C2F273
S31520001B100003AA18B845CBF80420CAF8041017D039
S31520001B20B9F10F0F40F2DF80A9F10C01052521F054
S31520001B30070108EB01000F2985604560D8F80400ED
S31520001B4000F0010041EA0000C8F8040000F2AC8071
S31520001B50D04643F2D023DBF82C10C2F200038A428F
S31520001B60DBF8301088BFDA6243F2D023C2F20003DA
S31520001B708A4288BF1A6382E05C189A68D968304620
S31520001B80666803F108058A6046F00103D160636048
S31520001B9000F0C4FA5AE608EB040342F0010244F0CE
S31520001BA001043046C8F8044008F108055A60BB60B5
S31520001BB000F0B4FA4AE64FEA5C22042A54D9142AE1
S31520001BC000F289805B324FEAC208A84442F6B46725
S31520001BD0C2F20007D8F80800404503D16FE08068BC
S31520001BE0804504D0426822F003029445F7D3D0F80A
S31520001BF00CC0C3F80CC098607A68C360CCF8083073
S31520001C008AE61F19304644F00104CF605C6003F178
S31520001C100805BA5042F001028F607A60B960F96017
S31520001C2000F07CFA12E60AF1010A1AF0030F5FD0DF
S31520001C3003F1080889E603F10802D3689A4208BF2F
S31520001C400EF1020E3FF436AEEFE51D461918DA689E
S31520001C50304655F8083F4C68936044F00104DA603A
S31520001C604C6000F05BFAF1E54FEA9C1238324FEAFD
S31520001C70C208AAE7B8453FF411AFD7F80880D8F8CC
S31520001C80042022F00302944294BF00230123121B56
S31520001C900F2AD8BF43F00103002B3FF47CAF304618
S31520001CA0002500F03BFAD1E508F108013046019302
S31520001CB000F078FE019BD7F808805A6849E74FF074
S31520001CC0010AD7F80480921084460AFA02F248EAFA
S31520001CD002027A608DE7542A24D84FEA1C326E32EB
S31520001CE04FEAC20871E70123D046CAF80430C6E796
S31520001CF04A461EF0030F13460EF1FF3E33D053F82B
S31520001D0008299A42F5D07B684FEA4C0C9C453FF651
S31520001D108EAEBCF1000F3FF48AAE1CEA030F27D02B
S31520001D20D6460EE6B2F5AA7F15D84FEADC327732D0
S31520001D304FEAC20849E70805000D00287FF4B6AE31
S31520001D40D7F808804B4443F00103C8F8043000E775
S31520001D5001210025D5E640F2545082420DD94FF498
S31520001D607C787E2231E77B6823EA0C037B60CBE715
S31520001D704FEA4C0C0AF1040ACFE74FEA9C427C3228
S31520001D804FEAC20821E700BF10F0030FC9B210B412
S31520001D9010D0002A2FD003788B422AD0013A05E0B2
S31520001DA0002A28D00378013A8B4222D0013010F045
S31520001DB0030FF5D1032A11D941EA012444EA044448
S31520001DC0036884EA0303A3F1013C2CEA030313F01E
S31520001DD0803F03D1043A0430032AF1D85AB103785C
S31520001DE08B4206D0013A32B110F8013F013A8B42BC
S31520001DF0F9D110BC70470020FBE700BF032A2DE96C
S31520001E00F0070BD83AB1002311F803C000F803C03D
S31520001E1001339342F8D1BDE8F007704782180C468B
S31520001E20034603E014F8011C03F8011C03F0030623
S31520001E301946A44601330134002EF3D11CF00304C5
S31520001E40634608BFC1EB020C68D06542C4F1040AA0
S31520001E500CEB050733464FEACA0A5CF805604FEAE1
S31520001E60C408551A08E057F8044F264604FA0AF41F
S31520001E7049EA0404CC5004335C18032D26FA08F9E9
S31520001E80A5F104050CEB0306EDDC002302E0F15C72
S31520001E90E154013319199142F9D3BCE753F8404C68
S31520001EA041F8404C53F83C4C41F83C4C53F8384CE4
S31520001EB041F8384C53F8344C41F8344C53F8304CF4
S31520001EC041F8304C53F82C4C41F82C4C53F8284C04
S31520001ED041F8284C53F8244C41F8244C53F8204C14
S31520001EE041F8204C53F81C4C41F81C4C53F8184C24
S31520001EF041F8184C53F8144C41F8144C53F8104C34
S31520001F0041F8104C53F80C4C41F80C4C53F8084C43
S31520001F1041F8084C53F8044C41F8044C1C460D4635
S31520001F2040334031BCF13F0FACF1400CB6DC2146CA
S31520001F302B46541B0FE051F8105C43F8105C51F807
S31520001F400C5C43F80C5C51F8085C43F8085C51F8CB
S31520001F50045C43F8045C0F2C0D469C4601F11001ED
S31520001F6003F11003A4F11004E5DCCCEB02010023FD
S31520001F7003E0EC584CF8034004335E19032903EBC5
S31520001F800C04A1F10401F4DC7FE700BF88428C46F3
S31520001F9070B4054614460ED98B1898420BD242B11E
S31520001FA0C2EB030C0146531E1CF80320CA54013B06
S31520001FB0FAD270BC70470F2A09D8002CF9D000231A
S31520001FC01CF80320EA540133A342F9D1F1E741EA90
S31520001FD0000313F0030FF0D194460C460346256800
S31520001FE0ACF1100C1D6065685D60A5689D60E568B4
S31520001FF01034DD601033BCF10F0FF0D8103A4FEAE1
S31520002000121C0CF10105CCEB0C7C2D0102EB0C16FD
S3152000201001EB050C4519032E3446CED900235CF876
S315200020200320EA500433F21A032AF8D8043EB308F0
S315200020305A1CC3EB83739200944406EB8304AD18B9
S31520002040BBE700BF032AC9B230B407D822B10023A8
S31520002050C15401339342FBD130BC704700EB020CD4
S31520002060034601E003F8011C03F003041A4601337A
S31520002070002CF7D14FF00133C2EB0C0403FB01F324
S315200020801FE042F8403C42F83C3C42F8383C42F8DB
S31520002090343C42F8303C42F82C3C42F8283C42F88A
S315200020A0243C42F8203C42F81C3C42F8183C42F8BA
S315200020B0143C42F8103C42F80C3C42F8083C42F8EA
S315200020C0043C154640323F2CA4F14004D9DC2A4674
S315200020D0C5EB0C0407E042F8103C42F80C3C42F8F1
S315200020E0083C42F8043C154610320F2CA4F110048B
S315200020F0F1DC2A46C5EB0C0501E042F8043C144607
S315200021000432032DA5F10405F7DC01E004F8011BD8
S315200021106445FBD3A0E700BF704700BF704700BFF0
S315200021202DE9F04F914683B007460E46002900F070
S315200021303A81A1F1080809F10B04FFF7EDFF162CEF
S31520002140D8F804100B4600F2A08010220025144671
S315200021504C4538BF45F00105002D40F02A8121F07D
S31520002160030A9245A2BF4046554608F1080875DA8B
S3152000217042F6B46308EB0A00C2F20003D3F808E083
S31520002180864500F01A81D0F804C02CF0010B834458
S31520002190DBF804B01BF0010F7CD0AC46284611F0CA
S315200021A0010F40F09B8056F8081CC1EB080BDBF8AA
S315200021B0045025F00305002800F0DD80704500F06E
S315200021C01F8105EB0A030CEB03059542B8BF1D469C
S315200021D0C0F2D28081685B46C068AAF10402242A34
S315200021E08160C86053F8081FDBF80C008160C86066
S315200021F000F2D080132A9C4621D931460BF1100CCF
S3152000220051F8040BCBF8080070680E1D1B2ACBF87A
S315200022100C0014D94868311D0BF1180CCBF81000AE
S3152000222070680E1D242ACBF8140008D14A680BF1D9
S31520002230200CCBF8182072680836CBF81C203146C3
S3152000224098466246584651F8043B42F8043B736868
S31520002250CCF804304B685360DBF80430C4EB050C33
S31520002260BCF10F0F26D8421903F0010343EA0505F6
S315200022704560536843F00103536038464546FFF7EF
S315200022804DFF284603B0BDE8F08F24F00704224610
S31520002290E50F5DE72CF0030C0CEB0A059542FFF6E3
S315200022A07EAF82680B46C168404608F108088A60FE
S315200022B0D160D3E7011903F0010301EB0C0243EAD5
S315200022C004044CF0010344604B60384653680831DF
S315200022D043F00103536000F065FBCEE749463846DC
S315200022E0FFF780FA0546002841D0D8F80430A0F13F
S315200022F0080223F0010141448A4200F0D780AAF166
S3152000230004023146242A78D8132A034621D9344692
S3152000231054F8043B211D40F8043B031DD6F804C0A5
S315200023201B2AC5F804C014D9D4F804E01C1D01F1F9
S31520002330040CC0F804E048680CF104015860231D21
S31520002340242A06D1DCF8042062604A6808315A60E3
S31520002350083308461A4650F8044B42F8044B49689D
S315200023605960436853603146384600F01BFB3846B7
S31520002370FFF7D4FE85E755449542AFDB5B46DBF895
S315200023800C00AAF1040253F8081F242A8160C860B1
S315200023907FF630AF184631469846FFF7F7FD584688
S315200023A0DBF804305AE7114603B0BDE8F04FFFF7DB
S315200023B019BA0C2300253B6063E7DEF8045004F1CC
S315200023C0100B25F0030C0CEB0A005845B8BF7046DD
S315200023D0FFF6E5AE08EB0402011B41F001019A600D
S315200023E051603846D8F80410354601F001031C43E5
S315200023F0C8F80440FFF792FE43E7FFF7C7FDB2E7B0
S31520002400554404F11001AC448C45B5DB5D46DBF840
S315200024100C00AAF1040255F8081F242A8160C8601E
S315200024204CD8132A284624D931460BF1100051F8EE
S3152000243004EBCBF808E0D6F804E00E1D1B2ACBF8F7
S315200024400CE016D9D1F804E0311D0BF11800CBF8B9
S3152000245010E0D6F804E00E1D242ACBF814E008D1AB
S315200024604A680BF12000CBF8182072680836CBF8A2
S315200024701C203146024651F804EB42F804EB7668FC
S315200024804660496851600BEB0402C4EB0C0141F035
S3152000249001019A6051603846DBF8041001F001030F
S315200024A01C43CBF80440FFF739FEEAE65568404660
S315200024B008F1080825F003055544CFE6314628469D
S315200024C00093CDF804C0FFF761FDDDF804C0009B42
S315200024D0D9E700BF38B543F25434C2F200040546AA
S315200024E0084600232360FEF7F9F8B0F1FF3F00D03D
S315200024F038BD2368002BFBD02B6038BDB1F90E10F8
S3152000250000F0C6B810B50C46B1F90E1000F02AFB43
S31520002510A389B0F1FF3F15BF606523F4805343F4D0
S315200025208053A38118BFA38110BD00BF2DE9F041C0
S315200025301D468B890C461646074613F4807F06D027
S315200025400223B1F90E10002200F00CFBA38923F41C
S3152000255080533846A3813246B4F90E102B46BDE887
S31520002560F041FEF78DB800BF10B50C46B1F90E103C
S3152000257000F07CFB002803DB636D1B18636510BD30
S31520002580A38923F48053A38110BD00BF70B542F602
S31520002590C055C2F2000506460C46286810B183696C
S315200025A0002B36D042F62453C2F200039C4238D088
S315200025B042F64453C2F200039C4241D042F6645391
S315200025C0C2F200039C4204BF2B68DC68A289114634
S315200025D093B213F0080F184618BF226933D01AB3E6
S315200025E013F0010107D063690021A1605B42A3615A
S315200025F042B1002070BD13F0020F08BF6169A160CF
S31520002600002AF6D1A38913F0800FF2D04FF0FF30C5
S3152000261070BDFEF7CDFE42F62453C2F200039C4263
S31520002620C6D12B685C68D1E703F42071B1F5007F31
S31520002630D6D03046214600F0ABFAA3892269CFE7EF
S315200026402B689C68C2E713F0100FDFD013F0040F3D
S3152000265008BF226917D0616B51B104F14403994236
S3152000266003D0304600F09EF9A28990B2002363631E
S3152000267022694FF6DB71C0F20001002300EA010156
S315200026806360A181226041F00803A3819BB2A6E783
S3152000269038B543F25434C2F20004054608460023F6
S315200026A02360FDF7A1FFB0F1FF3F00D038BD2368BE
S315200026B0002BFBD02B6038BD70B505460C46002993
S315200026C04BD0FEF7C1FD15B1AB69002B48D042F6C1
S315200026D02453C2F200039C4208BF6C680ED042F617
S315200026E04453C2F200039C4208BFAC6806D042F6AF
S315200026F06453C2F200039C4208BFEC68B4F90C6034
S315200027003EB32846214600F03DF8236B06463BB1F2
S315200027102846216A984736EA200628BF4FF0FF361A
S31520002720A38913F0800F1FD1616B41B104F14403DB
S31520002730994202D0284600F035F900236363A16C44
S3152000274021B1284600F02EF90023A3644FF00003A0
S31520002750A381FEF77BFD304670BD0E46304670BD28
S315200027602846FEF725FEB2E72846216900F01AF929
S31520002770DAE700BF42F6C0530146C2F200031868EA
S315200027809AE700BF0B692DE9F0410C468046002BE5
S3152000279071D010B18369002B78D042F62453C2F24F
S315200027A000039C4208BFD8F8044010D042F6445398
S315200027B0C2F200039C4208BFD8F8084007D042F670
S315200027C06453C2F200039C4208BFD8F80C40A38988
S315200027D01AB212F0080F35D1626843F40063A38160
S315200027E0002A5EDDE66A002E45D09BB213F48052A5
S315200027F018BF656D59D013F0040F4AD10023404607
S31520002800216A2A46B047854238D1A1894FF2FF7303
S315200028102269C0F2000301EA03030021616013F478
S31520002820805F616BA381226018BF656519B304F1CF
S315200028304403994202D0404600F0B4F80020606379
S31520002840BDE8F0812669B6B125682660AD1B12F079
S31520002850030F0CBF63690023A3600AE032462B46B0
S31520002860A76A4046216AB8470028C0EB05050644FA
S3152000287004DD002DF2DC0020BDE8F081A3894FF0B5
S31520002880FF3043F04003A381BDE8F081FEF790FDC1
S3152000289083E76268636BAD1A002BAFD0236CED1A09
S315200028A0ACE7226C002A9DDCE5E701234046216A3D
S315200028B0B047B0F1FF3F054602D0A389E66A9AE702
S315200028C0D8F800301D2BD6D0A38943F04003A3812E
S315200028D0BDE8F081014628B142F6C053C2F200039A
S315200028E018684FE742F6185342F28571C2F2000388
S315200028F0C2F200011868FEF725BF00BFF8B542F600
S31520002900B464C2F200040F460546FFF705FCA3682F
S315200029105E6826F0030606F57E630F33DF1B3F0B4A
S31520002920013F3F03B7F5805F07DB00212846FFF70D
S31520002930D1FDA368F318834204D02846FFF7EEFBA7
S315200029400020F8BD79422846FFF7C4FDB0F1FF3FCD
S3152000295010D0A26843F2D423C2F20003F61B46F03D
S315200029600106284656601A68D71B1F60FFF7D6FB5C
S315200029700120F8BD00212846FFF7ACFDA368C21A46
S315200029800F2ADADD43F2BC2443F2D421C2F200043A
S31520002990C2F2000142F001022468001B08605A605E
S315200029A0CBE700BF2DE9F04105460C46002900F093
S315200029B08880FFF7B1FBA4F1080242F6B46056689E
S315200029C0C2F2000026F00103D0F808C0D1188C45C9
S315200029D04F6827F0030700F0958016F001064F6038
S315200029E05FD00026CC19646814F0010F06D1DB19DC
S315200029F0002E7AD08C68C9688C60E16043F00101B2
S31520002A00D3505160002E47D1B3F5007F5BD3590ACE
S31520002A1004299EBF4FEA931C0CF1380C4FEACC04D4
S31520002A2028D914299CBF01F15B0C4FEACC0421D98B
S31520002A3054299EBF4FEA133C0CF16E0C4FEACC048E
S31520002A4018D9B1F5AA7F9EBF4FEAD33C0CF1770C7B
S31520002A504FEACC040ED940F2545C614595BF4FEA4B
S31520002A60934C4FF47C740CF17C0C4FF07E0C98BF89
S31520002A704FEACC040419A168A14203D164E0896815
S31520002A808C4204D0486820F003008342F7D3CB68F9
S31520002A90D3609160CA609A602846BDE8F041FFF78E
S31520002AA03DBB54F8084C00F1080C121B1B19946806
S31520002AB0644547D0D2F80CC0CCF80840C4F80CC006
S31520002AC090E7BDE8F081DB084FF0010C466800EB8B
S31520002AD0C3019B100CFA03F3D1608C6846EA03030A
S31520002AE043609460E2608A60D6E78C681C4FBC42E3
S31520002AF081D1D35043F00103E260A2605360946019
S31520002B00D460C9E7FB1816F0010F07D154F8081C4A
S31520002B10521A5B18D4689168A160CC6043F2C02138
S31520002B208260C2F2000143F0010050600A689342BD
S31520002B30B2D343F2D0232846C2F200031968FFF726
S31520002B40DDFEA9E701264DE7012644684FEAAC0CD5
S31520002B500B4606FA0CFC44EA0C04446098E700BFD6
S31520002B60BC2E002038B543F25434C2F20004054688
S31520002B70084611461A4600232360FDF765FDB0F18D
S31520002B80FF3F00D038BD2368002BFBD02B6038BD1B
S31520002B908B89F0B50C469AB291B012F0020F054619
S31520002BA041D1B1F90E10002918DB01AA00F074F802
S31520002BB0002811DB029B03F47043B3F5005F14BFBA
S31520002BC000270127B3F5004F40D0A3894FF4806634
S31520002BD043F40063A3810BE0A3899AB212F0800F1D
S31520002BE043F400630CBF4FF4806640260027A38180
S31520002BF028463146FEF7F6FD70B1A18941F29122B1
S31520002C00C2F20002206141F080016661AA62A181C0
S31520002C1020607FB911B0F0BDA38913F4007FF9D1EC
S31520002C2043F00203A38104F14703236123600123B8
S31520002C306361EFE72846B4F90E1000F043F8002848
S31520002C40E8D0A38943F00103A381E3E742F20553C9
S31520002C50E26AC2F200039A42B7D1A2894FF4806396
S31520002C601E46236542EA0303A381C1E738B543F232
S31520002C705434C2F200040546084611461A4600237B
S31520002C802360FDF7EFFCB0F1FF3F00D038BD23688D
S31520002C90002BFBD02B6038BD38B543F25434C2F23A
S31520002CA0000405460846114600232360FDF7AEFCC6
S31520002CB0B0F1FF3F00D038BD2368002BFBD02B603E
S31520002CC038BD00BF38B543F25434C2F2000405467D
S31520002CD0084600232360FDF7ABFCB0F1FF3F00D090
S31520002CE038BD2368002BFBD02B6038BD486561704A
S31520002CF020616E6420737461636B20636F6C6C69F2
S31520002D0073696F6E0A0000000100000002000000D7
S31520002D100400000001000000C42D00204300000034
S31520002D200A00000000000000000000000000000073
S31520002D30000000000000000000000000000000006D
S31520002D40000000000000000000000000000000005D
S31520002D50000000000000000000000000000000004D
S31520002D60000000000000000000000000000000003D
S31520002D70000000000000000000000000000000002D
S31520002D8000000000F8B500BFF8BC08BC9E4670479E
S31520002D90F8B500BFF8BC08BC9E46704785040020E5
S30920002DA07104002074
S31520002DA40000000040787D0140787D01105E5F00C0
S31520002DB4105E5F00105E5F00105E5F00C42D002071
S31520002DC400000000242D0020442D0020642D002026
S31520002DD400000000000000000000000000000000C9
S31520002DE41C2D002000000000000000000000000050
S31520002DF400000000000000000000000000000000A9
S31520002E040000000000000000000000000000000098
S31520002E140000000000000000000000000000000088
S31520002E240000000000000000000000000000000078
S31520002E340000000000000000000000000000000068
S31520002E440000000000000000000000000000000058
S31520002E540000000000000000000000000000000048
S31520002E640000000000000000000000000000000038
S31520002E740000000000000000000000000000000028
S31520002E840000000000000000000000000000000018
S31520002E940000000000000000000000000000000008
S31520002EA400000000000000000000000000000000F8
S31520002EB40000000000000000B42E0020B42E0020E4
S31520002EC4BC2E0020BC2E0020C42E0020C42E0020A0
S31520002ED4CC2E0020CC2E0020D42E0020D42E002050
S31520002EE4DC2E0020DC2E0020E42E0020E42E002000
S31520002EF4EC2E0020EC2E0020F42E0020F42E0020B0
S31520002F04FC2E0020FC2E0020042F0020042F00205D
S31520002F140C2F00200C2F0020142F0020142F00200B
S31520002F241C2F00201C2F0020242F0020242F0020BB
S31520002F342C2F00202C2F0020342F0020342F00206B
S31520002F443C2F00203C2F0020442F0020442F00201B
S31520002F544C2F00204C2F0020542F0020542F0020CB
S31520002F645C2F00205C2F0020642F0020642F00207B
S31520002F746C2F00206C2F0020742F0020742F00202B
S31520002F847C2F00207C2F0020842F0020842F0020DB
S31520002F948C2F00208C2F0020942F0020942F00208B
S31520002FA49C2F00209C2F0020A42F0020A42F00203B
S31520002FB4AC2F0020AC2F0020B42F0020B42F0020EB
S31520002FC4BC2F0020BC2F0020C42F0020C42F00209B
S31520002FD4CC2F0020CC2F0020D42F0020D42F00204B
S31520002FE4DC2F0020DC2F0020E42F0020E42F0020FB
S31520002FF4EC2F0020EC2F0020F42F0020F42F0020AB
S31520003004FC2F0020FC2F0020043000200430002058
S315200030140C3000200C300020143000201430002006
S315200030241C3000201C3000202430002024300020B6
S315200030342C3000202C300020343000203430002066
S315200030443C3000203C300020443000204430002016
S315200030544C3000204C3000205430002054300020C6
S315200030645C3000205C300020643000206430002076
S315200030746C3000206C300020743000207430002026
S315200030847C3000207C3000208430002084300020D6
S315200030948C3000208C300020943000209430002086
S315200030A49C3000209C300020A4300020A430002036
S315200030B4AC300020AC300020B4300020B4300020E6
S315200030C4BC300020BC300020C4300020C430002096
S315200030D4CC300020CC300020D4300020D430002046
S315200030E4DC300020DC300020E4300020E4300020F6
S315200030F4EC300020EC300020F4300020F4300020A6
S31520003104FC300020FC300020043100200431002053
S315200031140C3100200C310020143100201431002001
S315200031241C3100201C3100202431002024310020B1
S315200031342C3100202C310020343100203431002061
S315200031443C3100203C310020443100204431002011
S315200031544C3100204C3100205431002054310020C1
S315200031645C3100205C310020643100206431002071
S315200031746C3100206C310020743100207431002021
S315200031847C3100207C3100208431002084310020D1
S315200031948C3100208C310020943100209431002081
S315200031A49C3100209C310020A4310020A431002031
S315200031B4AC310020AC310020B4310020B4310020E1
S315200031C4BC310020BC310020C4310020C431002091
S315200031D4CC310020CC310020D4310020D431002041
S315200031E4DC310020DC310020E4310020E4310020F1
S315200031F4EC310020EC310020F4310020F4310020A1
S31520003204FC310020FC31002004320020043200204E
S315200032140C3200200C3200201432002014320020FC
S315200032241C3200201C3200202432002024320020AC
S315200032342C3200202C32002034320020343200205C
S315200032443C3200203C32002044320020443200200C
S315200032544C3200204C3200205432002054320020BC
S315200032645C3200205C32002064320020643200206C
S315200032746C3200206C32002074320020743200201C
S315200032847C3200207C3200208432002084320020CC
S315200032948C3200208C32002094320020943200207C
S315200032A49C3200209C320020A4320020A43200202C
S315200032B4AC320020AC320020FFFFFFFF00000200EA
S705200002993F
