S0240000736D617274667573696F6E6D73735F4D53535F434D335F305F6170702E737265634F
S315200000000000012099020020090300200B03002094
S315200000100D0300200F030020110300200000000024
S315200000200000000000000000000000001303002074
S3152000003015030020000000001703002019030020EC
S315200000401B0300201D0300201F0300202103002086
S315200000502303002025030020270300202903002056
S315200000602B0300202D0300200D150020391500201C
S3152000007033030020350300203703002039030020F6
S315200000803B0300203D0300203F03002041030020C6
S3152000009009080020450300204703002049030020CB
S315200000A04B030020000000000000000000000000BC
S315200000B00000000000000000000000004D030020AA
S315200000C04F03002051030020530300205503002036
S315200000D057030020590300205B0300205D03002006
S315200000E05F030020610300206303002065030020D6
S315200000F067030020690300206B0300206D030020A6
S315200001006F03002071030020730300207503002075
S3152000011077030020790300207B0300207D03002045
S315200001207F03002081030020830300208503002015
S3152000013087030020890300208B0300208D030020E5
S315200001408F030020910300209303002095030020B5
S3152000015097030020990300209B0300209D03002085
S315200001609F030020A1030020A3030020A503002055
S31520000170A7030020A9030020AB030020AD03002025
S31520000180AF030020B1030020B3030020B5030020F5
S31520000190B7030020B9030020BB030020BD030020C5
S315200001A0BF030020C1030020C3030020C503002095
S315200001B0C7030020C9030020CB030020CD03002065
S315200001C0CF030020D1030020D3030020D503002035
S315200001D0D7030020D9030020DB030020DD03002005
S315200001E0DF030020E1030020E3030020E5030020D5
S315200001F0E7030020E9030020EB030020ED030020A5
S31520000200EF030020F1030020F3030020F503002074
S31520000210F7030020F9030020FB030020FD03002044
S31520000220FF03002001040020030400200504002011
S3152000023007040020090400200B0400200D040020E0
S315200002400F040020110400201304002015040020B0
S3152000025017040020190400201B0400201D04002080
S315200002601F04002021040020230400202504002050
S3152000027027040020290400202B0400202D04002020
S315200002802F040020310400203304002035040020F0
S315200002903704002039040020684880476848002831
S315200002A00BD168486849694A884206D091421CBFEA
S315200002B050F8043B41F8043BF8D165486549664A45
S315200002C0884206D091421CBF50F8043B41F8043BBB
S315200002D0F8D162486249634A914218BF41F8040B3B
S315200002E0FAD100000000000000000000000000001D
S315200002F0DFF874010FF2030E00474FF000004FF0B5
S315200003000001DFF868F1FEE7FEE7FEE7FEE7FEE71D
S31520000310FEE7FEE7FEE7FEE7FEE7FEE7FEE7FEE78F
S31520000320FEE7FEE7FEE7FEE7FEE7FEE7FEE7FEE77F
S31520000330FEE7FEE7FEE7FEE7FEE7FEE7FEE7FEE76F
S31520000340FEE7FEE7FEE7FEE7FEE7FEE7FEE7FEE75F
S31520000350FEE7FEE7FEE7FEE7FEE7FEE7FEE7FEE74F
S31520000360FEE7FEE7FEE7FEE7FEE7FEE7FEE7FEE73F
S31520000370FEE7FEE7FEE7FEE7FEE7FEE7FEE7FEE72F
S31520000380FEE7FEE7FEE7FEE7FEE7FEE7FEE7FEE71F
S31520000390FEE7FEE7FEE7FEE7FEE7FEE7FEE7FEE70F
S315200003A0FEE7FEE7FEE7FEE7FEE7FEE7FEE7FEE7FF
S315200003B0FEE7FEE7FEE7FEE7FEE7FEE7FEE7FEE7EF
S315200003C0FEE7FEE7FEE7FEE7FEE7FEE7FEE7FEE7DF
S315200003D0FEE7FEE7FEE7FEE7FEE7FEE7FEE7FEE7CF
S315200003E0FEE7FEE7FEE7FEE7FEE7FEE7FEE7FEE7BF
S315200003F0FEE7FEE7FEE7FEE7FEE7FEE7FEE7FEE7AF
S31520000400FEE7FEE7FEE7FEE7FEE7FEE7FEE7FEE79E
S31520000410FEE7FEE7FEE7FEE7FEE7FEE7FEE7FEE78E
S31520000420FEE7FEE7FEE7FEE7FEE7FEE7FEE7FEE77E
S31520000430FEE7FEE7FEE7FEE7FEE700006515002083
S31520000440000000000000002000000020E0AB00209B
S31520000450E0AB0020E0AB002040B10020000000000F
S3152000046040B10020E0B20020A9170020210800207A
S315200004704BF24013C2F200031A780AB90120187011
S31520000480704700BF4AF6E030C2F2000008B50368A4
S315200004902BB140F20003C0F2000303B1984708BD18
S315200004A080B483B000AF0346FB804EF20013CEF239
S315200004B00003B7F906204FEA5212F98801F01F010E
S315200004C04FF0010000FA01F143F8221007F10C0762
S315200004D0BD4680BC704700BF80B483B000AF0346E2
S315200004E0FB804EF20013CEF20003B7F906204FEA46
S315200004F05212F98801F01F014FF0010000FA01F1B4
S3152000050002F1200243F8221007F10C07BD4680BCF9
S31520000510704700BF80B483B000AF0346FB804EF225
S315200005200013CEF20003B7F906204FEA5212F988DB
S3152000053001F01F014FF0010000FA01F102F1600203
S3152000054043F8221007F10C07BD4680BC704700BF58
S3152000055080B582B000AF0346FB714FF01400FFF761
S31520000560BBFF42F20003CEF2040342F20002CEF2B7
S315200005700402126B22F040021A6345F20003C4F211
S3152000058000034FF000025A6540F20003C4F20A232A
S315200005904FF00002C3F8802140F20003C4F20A2380
S315200005A04FF00002C3F8882140F20003C4F20A2368
S315200005B0FA79C3F8842145F20003C4F200034FF010
S315200005C001021A614FF01400FFF7A4FF07F1080794
S315200005D0BD4680BD80B400AF40F20003C4F20A23BA
S315200005E04FF00102C3F88021BD4680BC704700BF92
S315200005F080B483B000AF786045F20003C4F20003F4
S315200006007A685A6007F10C07BD4680BC704700BF68
S3152000061080B500AF40F20003C4F20A234FF0010276
S31520000620C3F888214FF01400FFF73AFF80BD00BFC2
S3152000063080B400AF45F20003C4F200034FF001027C
S315200006401A61BFF34F8FBD4680BC704780B500AF9F
S3152000065000F00EF800F024F84BF28413C2F20003E7
S315200006604FF096021A6040F6466001F001FC80BD0C
S3152000067080B400AF40F20003C4F205034FF000023D
S315200006801A60BD4680BC704780B400AF40F20003BC
S31520000690C4F205034FF001021A60BD4680BC7047C4
S315200006A080B400AF40F20403C4F205034FF0000209
S315200006B01A60BD4680BC704780B400AF40F2040388
S315200006C0C4F205034FF001021A60BD4680BC704794
S315200006D080B483B000AF786040F20803C4F205030B
S315200006E07A681A6007F10C07BD4680BC704700BFC8
S315200006F080B483B000AF786040F20C03C4F20503E7
S315200007007A681A6007F10C07BD4680BC704700BFA7
S3152000071080B500AF4BF28413C2F200034FF0C8023B
S315200007201A604FF00100FFF713FF4CF20020C0F6CD
S31520000730EB30FFF75DFFFFF76BFFFFF74BFF80BD49
S3152000074080B582B000AF00F057FB03463B604FF008
S3152000075000037B603DE001F037FB034603F0010315
S31520000760002B02D1FFF784FF01E0FFF78DFF01F098
S315200007702BFB02464FEAE2734FEA13631A4402F058
S31520000780FF02C3EB02031846FFF7A2FF01F01CFB92
S31520000790034603F00103002B02D1FFF781FF01E09E
S315200007A0FFF78AFF01F010FB02464FEAE2734FEA99
S315200007B013631A4402F0FF02C3EB02031846FFF745
S315200007C097FF4FF0FA0000F0DBF87B6803F1010396
S315200007D07B607B68032BBEDDFFF74AFFFFF760FFD8
S315200007E04FF00000FFF774FF4FF00000FFF780FF87
S315200007F04FF47A7000F0C4F8386800F001FB07F176
S315200008000807BD4680BD00BF80B500AF4BF28413FC
S31520000810C2F200034FF096021A60FFF709FF80BD6F
S3152000082080B500AF00F0CAF8FFF710FFFEE700BF63
S3152000083080B483B000AF0346FB804EF20013CEF2A5
S315200008400003B7F906204FEA5212F98801F01F017A
S315200008504FF0010000FA01F102F1200243F82210C4
S3152000086007F10C07BD4680BC704700BF80B483B03B
S3152000087000AF0346FB804EF20013CEF20003B7F919
S3152000088006204FEA5212F98801F01F014FF00100AD
S3152000089000FA01F102F1600243F8221007F10C0779
S315200008A0BD4680BC704700BF80B582B000AF03460E
S315200008B0FB714FF01500FFF7BBFF42F20003CEF2AB
S315200008C0040342F20002CEF20402126B22F040022E
S315200008D01A6345F20003C4F200034FF000025A6582
S315200008E040F20003C4F20A234FF00002C3F880242A
S315200008F040F20003C4F20A234FF00002C3F8882412
S3152000090040F20003C4F20A23FA79C3F8842445F29C
S315200009100003C4F200034FF001029A624FF0150063
S31520000920FFF7A4FF07F10807BD4680BD80B400AFDE
S3152000093040F20003C4F20A234FF00102C3F88024D8
S31520000940BD4680BC704700BF80B400AF45F20003AF
S31520000950C4F200039B691846BD4680BC704700BFA1
S3152000096080B483B000AF786045F20003C4F2000380
S315200009707A68DA6107F10C07BD4680BC704700BF74
S3152000098080B582B000AF78604FF00100FFF78CFF92
S315200009907A6848F2A063C0F2010303FB02F318460B
S315200009A0FFF7DEFFFFF7C2FFFFF7CEFF0346002B60
S315200009B0FAD107F10807BD4680BD00BF80B500AF5C
S315200009C04BF28C10C2F200004FF4E1314FF00302DB
S315200009D000F054FA4BF28C10C2F2000040F6F111EE
S315200009E0C2F200014FF0000200F03CFD80BD00BFC6
S315200009F080B598B000AF78604FF00003FB604FF0F1
S31520000A000003BB644FF00003FB6407F144037868DE
S31520000A1019464FF0010200F0A5FB03463B6597F807
S31520000A2044300D2B03D097F844300A2B09D107F117
S31520000A304403786819464FF0010200F093FB034601
S31520000A403B6597F844300D2B03D097F844300A2B9A
S31520000A502CD107F14403786819464FF0010200F0C3
S31520000A6081FB03463B6522E03B6D002B0FDDBB6C13
S31520000A7097F8442007F160010B4403F8502CBB6C17
S31520000A8003F10103BB644FF00003FB6403E0FB6C3E
S31520000A9003F10103FB6407F14403786819464FF01C
S31520000AA0010200F05FFB03463B6500E000BF97F8BC
S31520000AB04430002B07D0BB6C312B04DCFA6C40F29F
S31520000AC0F3139A42D0DDBB6C07F1600213444FF05A
S31520000AD0000203F8502C3B7C322B40F0B68007F105
S31520000AE01003184601F064FA0346072B40F0AD8048
S31520000AF04BF28813C2F200031B68012B40F0A5803D
S31520000B00BB7CA3F130037B6507F1100303F10402DC
S31520000B1007F10C0310464AF2BC71C2F200011A46D4
S31520000B2001F018FA4BF28413C2F200031A68FB682C
S31520000B30C3F5A67303F103034FEAD3710B444FEABF
S31520000B406303C3EB0203BB65FB68C3F5A67303F11E
S31520000B5003034FEAD37213444FEA63031A464BF258
S31520000B608413C2F200031B681344FB65BB6DFF2B85
S31520000B7003DD4FF0FF03BB6505E0BB6D002B02DAFA
S31520000B804FF00003BB65FB6DFF2B03DD4FF0FF032A
S31520000B90FB6505E0FB6D002B02DA4FF00003FB65D9
S31520000BA07B6D012B13D14BF24413C2F200031B6859
S31520000BB0012B0CD0FFF75CFDFFF772FDBB6D1846CD
S31520000BC0FFF786FDFB6D1846FFF792FD36E07B6D3D
S31520000BD0012B08D1BB6D1846FFF77AFDFB6D184631
S31520000BE0FFF786FD2AE07B6D022B13D14BF24413CF
S31520000BF0C2F200031B68022B0CD0FFF745FDFFF75E
S31520000C005BFDBB6D1846FFF763FDFB6D1846FFF7CE
S31520000C106FFD13E07B6D022B08D1BB6D1846FFF7E5
S31520000C2057FDFB6D1846FFF763FD07E04FF0000008
S31520000C30FFF74EFD4FF00000FFF75AFD4BF244132D
S31520000C40C2F200037A6D1A602BE03B7C302B12D166
S31520000C5007F11003184601F0ABF90346032B0AD11E
S31520000C60BB7C302B0CBF002201224BF28813C2F230
S31520000C7000031A6015E03B7C342B12D107F11003D8
S31520000C80184601F095F90346032B0AD1BB7C302B7D
S31520000C9002D1FFF73DFD04E0BB7C312B01D1FFF7EC
S31520000CA04FFD07F16007BD4680BD00BF80B483B00D
S31520000CB000AF78604FF0FF33184607F10C07BD46AA
S31520000CC080BC704780B483B000AF7860FEE700BF79
S31520000CD080B485B000AFF860B9607A604FF0000349
S31520000CE0184607F11407BD4680BC704780B485B00E
S31520000CF000AFF860B9607A604FF00003184607F13C
S31520000D001407BD4680BC704780B584B000AFF8603C
S31520000D10B9607A603B604BF24813C2F200031B684D
S31520000D20002B10D14BF2B410C2F200004FF46141F7
S31520000D304FF0030200F0A2F84BF24813C2F2000370
S31520000D404FF001021A603B684BF2B410C2F2000069
S31520000D5079681A4600F094F93B68184607F110079F
S31520000D60BD4680BD80B584B000AF78604BF24C1391
S31520000D70C2F200031B68002B08D14BF24C13C2F2BF
S31520000D8000034BF2E022C2F200021A604BF24C132F
S31520000D90C2F200031B68BB60EFF30883FB604BF2D3
S31520000DA04C13C2F200031A687B681A44FB689A4205
S31520000DB00FD94FF000004FF001014AF2C072C2F283
S31520000DC000024FF01903FFF79FFF4FF00100FFF7D6
S31520000DD079FF4BF24C13C2F200031A687B681A445F
S31520000DE04BF24C13C2F200031A60BB68184607F197
S31520000DF01007BD4680BD00BFEFF3108072B6704766
S31520000E0080F310887047000080B483B000AF03469B
S31520000E10FB804EF20013CEF20003B7F906204FEA0C
S31520000E205212F98801F01F014FF0010000FA01F17A
S31520000E3043F8221007F10C07BD4680BC704700BF5F
S31520000E4080B483B000AF0346FB804EF20013CEF28F
S31520000E500003B7F906204FEA5212F98801F01F0164
S31520000E604FF0010000FA01F102F1600243F822106E
S31520000E7007F10C07BD4680BC704700BF80B588B01F
S31520000E8000AFF860B9601346FB714FF00103FB8297
S31520000E904FF00003BB61FA684BF2B413C2F20003B1
S31520000EA09A4207D0FA684BF28C13C2F200039A4298
S31520000EB000D000BEBB68002B00D100BE00F058FB5E
S31520000EC0FA684BF2B413C2F200039A422ED1FB68A1
S31520000ED04FF080421A60FB684FF084425A60FB68EC
S31520000EE04FF00A021A814AF6EC33C2F200031B685D
S31520000EF0BB6142F20003CEF2040342F20002CEF2BC
S31520000F000402126B42F080021A634FF00A00FFF7C8
S31520000F1097FF42F20003CEF2040342F20002CEF221
S31520000F200402126B22F080021A6331E0FA6840F262
S31520000F300003C4F201031360FA6840F20003C4F20E
S31520000F4020235360FB684FF00B021A814AF6F033D8
S31520000F50C2F200031B68BB6142F20003CEF2040317
S31520000F6042F20002CEF20402126B42F480721A633D
S31520000F704FF00B00FFF764FF42F20003CEF20403AA
S31520000F8042F20002CEF20402126B22F480721A633D
S31520000F90FB681B684FF000021A71BB68002B21D03A
S31520000FA0BA69BB68B2FBF3F3FB61FB6903F0080384
S31520000FB0002B06D0FB694FEA131303F10103FB61F3
S31520000FC003E0FB694FEA1313FB61FA694FF6FF73DF
S31520000FD09A4200D900BEFA694FF6FF739A4201D8A9
S31520000FE0FB69FB82FB685B684FF00102C3F89C211A
S31520000FF0FB681B68FA8A4FEA122292B2D2B21A71A1
S31520001000FB681B68FA8AD2B21A70FB685B684FF0DD
S315200010100002C3F89C21FB681B68FA791A73FB68E7
S315200010201B684FF00E021A72FB685B684FF00002D5
S31520001030C3F81022FB684FF000021A61FB684FF0DC
S315200010400002DA60FB684FF000025A61FB684FF03D
S315200010500002DA61FA6841F25D33C2F200031362DC
S31520001060FB684FF000029A61FB684FF000025A625B
S31520001070FB684FF000029A7207F12007BD4680BD3B
S3152000108080B489B000AFF860B9607A604FF0000391
S315200010903B61FA684BF2B413C2F200039A4207D0BE
S315200010A0FA684BF28C13C2F200039A4200D000BEBB
S315200010B0BB68002B00D100BE7B68002B00D100BE90
S315200010C0FA684BF2B413C2F200039A4206D0FA68C9
S315200010D04BF28C13C2F200039A423DD1BB68002B1F
S315200010E03AD07B68002B37D0FB681B681B7DFB76CC
S315200010F0FB689A7AFB7E42EA0303DAB2FB689A72AD
S31520001100FB7E03F02003002B23D04FF01003FB615E
S315200011107B680F2B01D87B68FB614FF000037B6156
S315200011200EE0FB681B68B9683A690A4412781A709F
S315200011303B6903F101033B617B6903F101037B6199
S315200011407A69FB699A42ECD37A687B69C3EB02031E
S315200011507B607B68002BC7D107F12407BD4680BC86
S31520001160704700BF80B487B000AFF860B9607A607E
S315200011704FF000033B614FF00003FB75FA684BF21A
S31520001180B413C2F200039A4207D0FA684BF28C13CA
S31520001190C2F200039A4200D000BEBB68002B00D1E9
S315200011A000BE7B68002B00D100BEFA684BF2B41358
S315200011B0C2F200039A4206D0FA684BF28C13C2F2AE
S315200011C000039A4234D1BB68002B31D07B68002BB8
S315200011D02ED0FB681B681B7DFB75FB689A7AFB7D0E
S315200011E042EA0303DAB2FB689A7217E0BA683B69EF
S315200011F01344FA6812681278D2B21A703B6903F166
S3152000120001033B61FB681B681B7DFB75FB689A7AB3
S31520001210FB7D42EA0303DAB2FB689A72FB7D03F098
S315200012200103DBB2002B03D03A697B689A42DDD3F7
S315200012303B69184607F11C07BD4680BC704700BFB6
S3152000124080B584B000AF78607A684BF2B413C2F2EE
S3152000125000039A4207D07A684BF28C13C2F200033D
S315200012609A4200D000BE7A684BF2B413C2F2000351
S315200012709A4206D07A684BF28C13C2F200039A4245
S3152000128067D17B681B681B7ADBB203F00F03FB7305
S31520001290FB7B0C2B54D801A252F823F0D11200204C
S315200012A041130020ED1200204113002009130020D5
S315200012B04113002025130020411300204113002054
S315200012C04113002041130020411300200913002060
S315200012D07B685B6A002B00D100BE7B685B6A002BB3
S315200012E030D07B685B6A7868984732E07B681B6AF7
S315200012F0002B00D100BE7B681B6A002B24D07B68A4
S315200013001B6A7868984724E07B68DB69002B00D14C
S3152000131000BE7B68DB69002B18D07B68DB697868A8
S31520001320984716E07B689B69002B00D100BE7B683E
S315200013309B69002B0CD07B689B697868984708E0EE
S3152000134000BE06E000BF04E000BF02E000BF00E0F0
S3152000135000BF07F11007BD4680BD00BF80B487B02F
S3152000136000AF78607A684BF2B413C2F200039A4257
S3152000137007D07A684BF28C13C2F200039A4200D04F
S3152000138000BE7B68DB68002B00D100BE7B681B6932
S31520001390002B00D100BE7A684BF2B413C2F20003D0
S315200013A09A4206D07A684BF28C13C2F200039A4214
S315200013B052D17B68DB68002B4ED07B681B69002BE3
S315200013C04AD07B681B681B7DFB727B689A7AFB7A06
S315200013D042EA0303DAB27B689A72FB7A03F02003AF
S315200013E0002B29D04FF010033B617B681A697B687C
S315200013F05B69C3EB02037B617B690F2B01D87B6999
S315200014003B614FF00003FB6012E07B681B687A6843
S31520001410D1687A6852690A4412781A707B685B69C7
S3152000142003F101027B685A61FB6803F10103FB604B
S31520001430FA683B699A42E8D37B685A697B681B69DC
S315200014409A4209D17B684FF000021A617B685B687B
S315200014504FF00002C3F8842007F11C07BD4680BC6C
S31520001460704700BF80B584B000AFF860B9601346FE
S31520001470FB71FA684BF2B413C2F200039A4207D00A
S31520001480FA684BF28C13C2F200039A4200D000BED7
S31520001490BB68002B00D100BEFB79C02B00D900BE53
S315200014A0FA684BF2B413C2F200039A4206D0FA68E5
S315200014B04BF28C13C2F200039A4223D1BB68002B55
S315200014C020D0FB79C02B1DD8FB68BA68DA61FB688F
S315200014D01A68FB7903F0C00343F00A03DBB21372E8
S315200014E0FB681B891BB21846FFF7AAFCFB685B68E2
S315200014F04FF00102C3F88020FB681B891BB21846F7
S31520001500FFF782FC07F11007BD4680BD684620F034
S3152000151007018D4689B500AF4BF2B410C2F2000028
S31520001520FFF78EFE4FF00A00FFF78AFCBD46BDE8A6
S3152000153089408546704700BF684620F007018D46E2
S3152000154089B500AF4BF28C10C2F20000FFF778FE8F
S315200015504FF00B00FFF774FCBD46BDE88940854679
S31520001560704700BF80B400AFBD4680BC704700BF47
S3152000157080B58AB000AF4AF2DC73C2F20003BC46E3
S315200015800FCB8CE80F0042F20003CEF204039B6CD3
S315200015904FEA930303F003034FEA830307F128027C
S315200015A0134453F8283C3B6142F20003CEF2040375
S315200015B09B6C4FEA131303F003034FEA830307F1EF
S315200015C02802134453F8283C7B6142F20003CEF2F2
S315200015D004039B6C4FEA931303F003034FEA830340
S315200015E007F12802134453F8283CBB6142F200035A
S315200015F0CEF20403DB6C4FEA132303F01F033B6296
S3152000160042F20003CEF20403DB6C4FEA533303F0BD
S3152000161001037B623B6A03F10103FB617B6A002BBA
S3152000162003D0FB694FEA4303FB6100F049F8024609
S315200016304AF6E833C2F200031A604AF6E833C2F2E9
S3152000164000031A683B69B2FBF3F24AF6EC33C2F2A6
S3152000165000031A604AF6E833C2F200031A687B696F
S31520001660B2FBF3F24AF6F033C2F200031A604AF6EE
S31520001670E833C2F200031A68BB69B2FBF3F24AF6FA
S31520001680F433C2F200031A604AF6E833C2F20003CA
S315200016901A68FB69B2FBF3F24AF6F833C2F200038A
S315200016A01A604AF6E833C2F200031A684AF6E433AF
S315200016B0C2F200031A6007F12807BD4680BD00BFAD
S315200016C080B48BB000AF4FF000037B6040F61C0364
S315200016D0C6F20803BB6040F23023C6F20803FB6063
S315200016E0FB681B6823F070433B613A6941F2CF13D4
S315200016F0C0F2A1539A4208D14EF62C73C6F20103CA
S315200017007B617B691B687B603DE0BB681A6844F29D
S315200017104133C4F654439A4235D140F64003C6F2CB
S315200017200803BB61BB691B68FB61FB6923F07F4330
S31520001730FB61FA6940F20033C0F201039A4222D9D2
S31520001740FA694FF6FF73C0F201039A4208D841F2B4
S315200017502C63C6F208033B623B6A1B687B6012E07F
S31520001760FA694FF6FF73C0F202039A4208D841F68F
S31520001770AC63C6F208037B627B6A1B687B6002E06F
S315200017804FF000037B607B68002B05D100BE47F637
S315200017904003C0F27D137B607B68184607F12C0757
S315200017A0BD4680BC704700BF70B54AF6D0364AF6B3
S315200017B0D035C2F20006C2F20005761BB61006D05E
S315200017C0002455F8243001349847A642F9D84AF621
S315200017D0D0354AF6D436C2F20005C2F20006761B90
S315200017E009F0EAF9B61006D0002455F82430013461
S315200017F09847A642F9D870BD4AF6FC330146C2F294
S315200018000003186801F052BF4AF6FC330146C2F2C3
S315200018100003186800F000B82DE9F04F01F10B0421
S31520001820162C83B006462FD8002310248C422CBFBA
S31520001830194643F00101002930D1304600F0BEFAA6
S31520001840B4F5FC7F2ED24FEAD40E4AF6F045C2F20A
S31520001850000505EBCE02D368934200F006825A6853
S3152000186003F10805D968304622F0030C9A686344D0
S315200018705C688A6044F00104D1605C6000F0A0FAE4
S31520001880284603B0BDE8F08F24F00704E30F8C420E
S315200018902CBF194643F001010029CED00C23002588
S315200018A03360EDE75FEA542E04BF4FEAD40E4FEAC9
S315200018B0CE0040F090804AF6F045C2F20005281886
S315200018C0C368984206D10DE0002A80F26F81DB685A
S315200018D0984207D0596821F003010A1B0F2AF3DD2D
S315200018E00EF1FF3E0EF1010E4AF6F047C2F2000756
S315200018F007F108018B68994208BF7A6826D05A6892
S3152000190022F0030CC4EB0C020F2A00F39481002A68
S31520001910C960896080F29980BCF5007F80F065817E
S315200019204FEADC0C4FF0010A7A6807EBCC004FEA4D
S31520001930AC0C0AFA0CFCD860D0F808804CEA0202FB
S315200019407A60C3F80880C8F80C3083604FF0010C29
S315200019504FEAAE030CFA03FC944500F2828012EAA9
S315200019600C0F08D12EF0030E4FEA4C0C0EF1040E8C
S3152000197012EA0C0FF8D007EBCE09F246C846D8F883
S315200019800C30984507D168E1002A80F27881DB681F
S31520001990984500F06281586820F00300021B0F2A48
S315200019A0F2DD1D461F19D3F80CC044F0010E55F880
S315200019B0084F3046BA5042F00102C3F804E0CCF892
S315200019C00840C4F80CC08F60CF607A60B960F960B7
S315200019D000F0F6F954E7BEF1040F9EBF4FEA941EBD
S315200019E00EF1380E4FEACE007FF665AFBEF1140F2A
S315200019F09CBF0EF15B0E4FEACE007FF65CAFBEF1C8
S31520001A00540F9EBF4FEA143E0EF16E0E4FEACE00E3
S31520001A107FF651AFBEF5AA7F9EBF4FEAD43E0EF1A8
S31520001A20770E4FEACE007FF646AF40F254539E45DE
S31520001A3095BF4FEA944E4FF47C700EF17C0E4FF01A
S31520001A407E0E98BF4FEACE0035E703EB0C0203F17A
S31520001A5008053046536843F00103536000F0B0F99F
S31520001A600EE7D7F80880D8F8043023F00309C4EB32
S31520001A7009024C4594BF002301230F2AD8BF43F007
S31520001A800103002B00F0A1804BF2501BD5F808244F
S31520001A90C2F2000BDBF8003010331B19B2F1FF3F06
S31520001AA006D003F57E631F3323F47E6323F01F03E2
S31520001AB019463046019300F00BFA019BB0F1FF3F27
S31520001AC0824600F0F48008EB0901814200F2EC80A6
S31520001AD0DBF804209A185145CBF8042000F0458104
S31520001AE0D5F808544AF6F040C2F20000B5F1FF3F9F
S31520001AF008BFC0F808A403D05244511ACBF80410EA
S31520001B001AF00705304617BFC5F108054FF4805572
S31520001B10AA4405F5805553441B051B0DED1A29468D
S31520001B2000F0D6F9B0F1FF3F00F02C81CAEB00019E
S31520001B30491941F00101DBF804204BF25013C7F894
S31520001B4008A0C2F20003AA18B845CBF80420CAF8A8
S31520001B50041017D0B9F10F0F40F2DF80A9F10C0164
S31520001B60052521F0070108EB01000F298560456056
S31520001B70D8F8040000F0010041EA0000C8F804008B
S31520001B8000F2AC80D0464BF25013DBF82C10C2F298
S31520001B9000038A42DBF8301088BFDA624BF250131A
S31520001BA0C2F200038A4288BF1A6382E05C189A68F0
S31520001BB0D9683046666803F108058A6046F0010355
S31520001BC0D160636000F0FCF85AE608EB040342F0AB
S31520001BD0010244F001043046C8F8044008F1080523
S31520001BE05A60BB6000F0ECF84AE64FEA5C22042A11
S31520001BF054D9142A00F289805B324FEAC208A844DD
S31520001C004AF6F047C2F20007D8F80800404503D14B
S31520001C106FE08068804504D0426822F00302944534
S31520001C20F7D3D0F80CC0C3F80CC098607A68C360AC
S31520001C30CCF808308AE61F19304644F00104CF60FC
S31520001C405C6003F10805BA5042F001028F607A60A9
S31520001C50B960F96000F0B4F812E60AF1010A1AF048
S31520001C60030F5FD003F1080889E603F10802D36861
S31520001C709A4208BF0EF1020E3FF436AEEFE51D463E
S31520001C801918DA68304655F8083F4C68936044F0D6
S31520001C900104DA604C6000F093F8F1E54FEA9C12FB
S31520001CA038324FEAC208AAE7B8453FF411AFD7F851
S31520001CB00880D8F8042022F00302944294BF00231F
S31520001CC00123121B0F2AD8BF43F00103002B3FF438
S31520001CD07CAF3046002500F073F8D1E508F1080105
S31520001CE03046019301F0E2FC019BD7F808805A6840
S31520001CF049E74FF0010AD7F80480921084460AFA81
S31520001D0002F248EA02027A608DE7542A24D84FEA82
S31520001D101C326E324FEAC20871E70123D046CAF858
S31520001D200430C6E74A461EF0030F13460EF1FF3E67
S31520001D3033D053F808299A42F5D07B684FEA4C0CE9
S31520001D409C453FF68EAEBCF1000F3FF48AAE1CEAEE
S31520001D50030F27D0D6460EE6B2F5AA7F15D84FEA4E
S31520001D60DC3277324FEAC20849E70805000D002821
S31520001D707FF4B6AED7F808804B4443F00103C8F889
S31520001D80043000E701210025D5E640F25450824276
S31520001D900DD94FF47C787E2231E77B6823EA0C0349
S31520001DA07B60CBE74FEA4C0C0AF1040ACFE74FEAF7
S31520001DB09C427C324FEAC20821E700BF704700BF31
S31520001DC0704700BF0000000038B54AF6FC34C2F266
S31520001DD000042568A86BD8B104694FF22D4C4569DB
S31520001DE0C5F6510C47F62D710122C4F69541002304
S31520001DF004FB0CFC05FB01CCA1FB04451219654430
S31520001E0043EB0503C0E9042323F00041084638BD0F
S31520001E101820FFF7F9FC246813A3D3E900234FF217
S31520001E202D41C5F6510141F2342CA8634AF6CD3531
S31520001E30A06B43F20E3445804DF6EC6504804EF2DD
S31520001E406D64A0F804C04FF0050CC4804FF00B045D
S31520001E500581002584810124A0F80AC0C0E9044533
S31520001E60C0E90423084638BD2E7F954C2DF45158E1
S31520001E7070B54AF6FC34C2F2000406462568AB6B00
S31520001E801BB100221E615A6170BD1820FFF7BCFCF1
S31520001E9023684AF6CD3141F23422A86343F20E304C
S31520001EA09B6B18804EF26D6059804DF6EC619A80DE
S31520001EB04FF00502D8804FF00B00198100215A817E
S31520001EC0002298810120C3E904011E615A6170BD78
S31520001ED038B54BF2DC14C2F200040546084600234E
S31520001EE02360FEF73FFFB0F1FF3F00D038BD2368E7
S31520001EF0002BFBD02B6038BD002070470CB44FF46C
S31520001F000173F0B59DB022AC05460846ADF81030F9
S31520001F1054F8047B0191059100F04AF83A4623468D
S31520001F2001A94FF0FF3C1B94ADF812C00646284687
S31520001F3041F6F9650696C2F2000502960A95002535
S31520001F4013950E9500F0CAF81DB0BDE8F04002B01A
S31520001F50704700BF0EB44FF4017370B59DB021AC2D
S31520001F60ADF8103054F8045B0590019000F020F88D
S31520001F704AF6FC312A46C2F20001234641F6F965AB
S31520001F804FF0FF3CC2F20005ADF812C00A950025BD
S31520001F901B9413950E950646086801A90696029687
S31520001FA000F09CF81DB0BDE8704003B0704700BF3C
S31520001FB020F0030110F00300C0F1000051F8043BAB
S31520001FC000F1040C4FEACC0C6FF000021CBF22FA81
S31520001FD00CF213434FF0010C4CEA0C2C4CEA0C4C3F
S31520001FE0A3EB0C0222EA030212EACC1204BF51F838
S31520001FF0043B0430F4D013F0FF0F1FBF013013F45D
S315200020007F4F013013F47F0F18BF0130704700BF98
S3152000201010B50C46496B69B104F14403994201D0CD
S3152000202001F044FB236C00206063636013B1E36B13
S31520002030236010BD22690021A3894FF0FF30616023
S3152000204043F020032260A38110BD00BFB1F1FF3F02
S3152000205030B583B014D0B2F80CC0CCB2536B2CF090
S31520002060200191817BB15168936B99422CDA1368D8
S315200020702146581E106003F8014C53680133536003
S31520002080084603B030BD1369E3B11068834204D219
S3152000209010F8011C431EA1420FD055681346D06389
S315200020A0214602F1440003F8464F5063032015648D
S315200020B09063012013605060E2E750681360431C70
S315200020C05360DDE71068E8E71146019201F01CF83D
S315200020D0019A0028CBD04FF0FF31D1E72DE9F04F00
S315200020E0ADF52F7D0C4617468046099301F0A6F9DB
S315200020F0A3894BF2081113F4005FC2F2000102BF5C
S3152000210043F40053A381626E0D9104BF22F4005361
S315200021106366002067AA054603320A900C900B904E
S3152000212003923A78AD923AB34BF204160137C2F2D3
S3152000213000063368991891F8019019F0080923D000
S3152000214063680DE0236831685A1C1B785B185B783E
S3152000215013F0080FE5D0636801352260013B636008
S31520002160002BEFDC40462146FFF752FF0028E9D03E
S315200021703A78AD92002AD7D10C9D01F061F9284614
S315200021800DF52F7DBDE8F08F252A10D06368002B32
S3152000219040F30A81236817F8012C19789142EBD174
S315200021A06268013301352360531E6360B9E73A78CC
S315200021B0CB460A210137782A00F2C4830FF2040C99
S315200021C05CF822F0692900204529002045290020B5
S315200021D045290020452900204529002045290020A1
S315200021E04529002045290020452900204529002091
S315200021F04529002045290020452900204529002081
S315200022004529002045290020452900204529002070
S315200022104529002045290020452900204529002060
S315200022204529002045290020452900204529002050
S315200022304529002045290020452900204529002040
S315200022404529002045290020452900204529002030
S3152000225045290020452900208D21002045290020E0
S3152000226045290020452900204529002073290020E2
S315200022704529002045290020452900204529002000
S31520002280452900207B2900207B2900207B2900204E
S315200022907B2900207B2900207B2900207B29002008
S315200022A07B2900207B2900207B290020452900202E
S315200022B045290020452900204529002045290020C0
S315200022C045290020452900204529002045290020B0
S315200022D045290020CF2300208929002045290020D8
S315200022E0892900204529002045290020452900204C
S315200022F04529002091290020452900204529002034
S31520002300992900204529002045290020452900201B
S31520002310452900204529002045290020452900205F
S3152000232045290020B32900204529002045290020E1
S31520002330D1290020452900204529002045290020B3
S31520002340452900204529002045290020452900202F
S31520002350E7290020D323002089290020892900206D
S3152000236089290020A9280020B128002045290020FD
S3152000237045290020C728002045290020DB280020E9
S31520002380F72800200D290020452900204529002076
S3152000239027290020452900202F2900204529002013
S315200023A045290020B329002040462146FFF730FE6C
S315200023B000283FF4EFAE0C9D01F042F825B1A38929
S315200023C013F0400F3FF4DBAE4FF0FF35D7E649F070
S315200023D00109DA4645F2F932C2F200020A234FF029
S315200023E0030C0B920A93CDF820C06368002B40F3B0
S315200023F04A8219F0400F08BF236812D0089A531E4C
S31520002400032B00F2D780DFE813F0AA0194001D0009
S31520002410360140462146FFF7FBFD0028CBD1236835
S3152000242001351978013332688A18527812F0080F6C
S31520002430E4D06268013A6260002AC8BF2360E8DD02
S315200024400135EEE70BF1FF3349F4586CB3F5AE7F57
S315200024504AF2F47388BFABF5AE7B0DF14C09C2F29C
S3152000246000030E970A9F92BF4FF0000B40F25D1AB1
S315200024700BF1FF3B2A4600264D46089699466646AE
S31520002480D4F800C09CF80000A0F12B014D2900F2E1
S31520002490A781DFE811F0C701A501C701A501A501A4
S315200024A0D201CD01CD01CD01CD01CD01CD01CD0191
S315200024B0F101F101A501A501A501A501A501A5012E
S315200024C0A501EC01EC01EC01EC01EC01EC01A5010C
S315200024D0A501A501A501A501A501A501A501A501A6
S315200024E0A501A501A501A501A501A501A501A50196
S315200024F08C01A501A501A501A501A501A501A5019F
S31520002500A501EC01EC01EC01EC01EC01EC01A501CB
S31520002510A501A501A501A501A501A501A501A50165
S31520002520A501A501A501A501A501A501A501A50155
S315200025308C01BBF1000F14BFDA464FF0FF3A19F0B9
S31520002540010300F0ED8319F01000089018BF0DF577
S315200025502D7B04D10999D1F800B0043109913B466D
S315200025604FF000092F465D469B460E960E9B22682D
S31520002570196813785918497881F00801C1F3C00108
S31520002580BAF1000F0CBF002101F00101002940F033
S3152000259046845B46AB463D461F46089E002E7FF48A
S315200025A0C0ADCBF80060DDF830C00CF1010CCDF8E1
S315200025B030C0B6E5BBF1000F14BFDA464FF0010A72
S315200025C019F0010600F05A8319F01000089018BF80
S315200025D04FF0000904D10999D1F8009004310991EE
S315200025E02B46CDF83C90C146DDF834805546002672
S315200025F00DF14C0B9A460E97D8F800309E423FF4C8
S31520002600DAAE23680021D4F804E00822ABA8ABAFE9
S3152000261013F801CB0EF1FF3EC4F804E00BF806C018
S315200026200136236001F0CCFA48460F995A463346C4
S31520002630009701F0B3F9B0F1FF3F3FF4BCAE00289C
S3152000264040F0B983089808B90F990860089AB244EF
S31520002650013D002A00F0B98300266368002B40F371
S315200026605083002DC8D10E9F5546C846089E002E81
S315200026707FF457AD97E70BF1FF33B3F5AE7F00F24A
S31520002680F78200224FF0000B41461197904649F4FD
S31520002690F06913AE5B465F460A46CDF820B0CDF80A
S315200026A040B0CDF838B0CDF83CB0D4F800E09EF874
S315200026B00000A0F12B014E2900F2D681DFE811F0AF
S315200026C05D02D4015D025502D4014502BE01BE0160
S315200026D0BE01BE01BE01BE01BE01BE01BE01D401C6
S315200026E0D401D401D401D401D401D401D302D4011C
S315200026F0D401D401BA02B302D401D4019602D40182
S31520002700D401D401D4016B02D401D401D401D40163
S31520002710D4016402D401D401D401D4018F02D4019E
S31520002720D401D401D401D401D401D401D302D401DB
S31520002730D401D401BA02B302D401D4019602D40141
S31520002740D401D401D4016B02D401D401D401D40123
S31520002750D4016402D401D401D401D4018F02BBF187
S31520002760000F14BFDA464FF0FF3A19F0100F00F0B1
S315200027704081236800261A780DF5D67C01331CF893
S315200027800220002A00F0B883626801362360013AED
S31520002790B245626000F0B282002AECDC4046214657
S315200027A0FFF736FC002840F0A9822368E3E706F409
S315200027B0C061B1F5007F13D126F40076102746F4C8
S315200027C0A06605F8010B6168013961600029C4BF64
S315200027D00CF1010121605EDDBAF1010A7FF450AEF1
S315200027E016F4807FA9460A97B44615460E9F0FD049
S315200027F00DF14C0ACA4508D219F8011D4046224659
S315200028000796FFF723FCDDF81CC0CA453FF4B4AC9D
S315200028101CF0100200F0548313AB0898ED1A2D1803
S315200028204D447EE416F0800FDAD026F08006C8E705
S3152000283039F9177026F43866C3E716F4006FC0D04E
S3152000284017B946F40076083716F4806F18BF26F4B9
S31520002850B066B6D1BBF1000F03D00BF1FF3B0AF1F6
S31520002860010A089826F4607601300890ABE70A2F13
S31520002870B6DD26F43866A4E739F91770082FAFDDE0
S3152000288026F438669DE740462146FFF7C1FB00281F
S315200028903FF4AFAD8FE5404621460792FFF7B8FBE0
S315200028A0079A002898D09BE749F004093A7881E4F2
S315200028B045F2F9300021C2F200000322DA460B90DD
S315200028C00A91089291E53A786C2A0ABF49F00209E2
S315200028D049F0010917F8012F6CE419F0100F7FF465
S315200028E020AC19F0040F00F07783099E3368043674
S315200028F009961D8015E445F241730820C2F20003B3
S315200029000321DA460B930A9008916EE545F2417051
S315200029101021C2F20000032249F408790B90DA460E
S315200029200A91089261E50221DA4608915DE545F2B1
S3152000293041700A21C2F200000322DA460B900A9166
S31520002940089252E5D318DA465B7813F0010F45F268
S31520002950F93318BF49F00109C2F200030A20032106
S315200029600B930A90089140E500F06AFD4FF0FF3581
S3152000297005E449F010093A781CE401FB0BFBABF1A6
S31520002980300B93443A7815E40420DA4608902CE577
S3152000299049F002093A780DE445F241730820C2F263
S315200029A00003032149F001090B93DA460A900891A6
S315200029B01BE545F241721023C2F200024FF0030CD0
S315200029C049F400790B92DA460A93CDF820C00CE53B
S315200029D039466BA801F046FB49F040090122DA4648
S315200029E00892074601E5002349F04009DA46089394
S315200029F0FBE4099822680668334612786BA98A5C3C
S31520002A00002A00F0F681226861680139616012F8B7
S31520002A10011BBAF1010A03F8011B226000F0E981CB
S31520002A2061680029E9DC404621460693FFF7F0FA63
S31520002A30069B002840F0DA812268DEE70BEB0701CF
S31520002A4091B929F4C07906F8010B6168013501397D
S31520002A5061600029C4BF0EF10101216040F3BA81F3
S31520002A60BAF1010A7FF421AE0E9390460E9A3B46A8
S31520002A70119F0AB129F48079013B012B40F223836F
S31520002A800BF1FF33062B21D8BBF1020F40F20F8347
S31520002A90BBF1030F1AD0CDF84490DA46B1460AF1BD
S31520002AA0FF3A404616F8011D22465FFA8AFAFFF7DA
S31520002AB0CDFABAF1030FF2D8ABF10403013D4E462D
S31520002AC0DDF84490DBB2ED1ADB43F61819F4807F6B
S31520002AD016D019F4806F40F00B8316F8011D013DC6
S31520002AE0B1F1650318BF012345290CBF002303F06C
S31520002AF00103002B40F0598240462246FFF7A6FAF2
S31520002B0019F010027FF40DAB09F4C0633270B3F5EF
S31520002B10806F00F040821098002840F02482002226
S31520002B20404613A901F060FC19F0010F82468B463E
S31520002B3000F0E881099A161D1368C3E900AB0C9BC7
S31520002B40099601330C93FFF7ECBA19F4807F3FF412
S31520002B5075AF29F080090133B8F1000F3FF475AF46
S31520002B6008F1FF380AF1010A6FE719F4007F3FF4F4
S31520002B707BAF29F420790F9365E719F0800F3FF496
S31520002B8073AF29F080095EE7BBF1060F7FF46CAFC7
S31520002B904FF0070B57E7D7F1010138BF0021002B73
S31520002BA014BF002101F00101002900F0338109F44E
S31520002BB0E061B1F5E06F00F0D181BBF1010F14BFE8
S31520002BC000210121BBF1040F08BF41F001010029BA
S31520002BD03FF44AAF0BF1010B5FFA8BFB33E7BBF1F6
S31520002BE0070F7FF441AF4FF0080B2CE7DBF1010113
S31520002BF038BF0021002B14BF002101F0010129B1AB
S31520002C0009F4E061B1F5E06F00F0E081BBF1030F5C
S31520002C1014BF00210121BBF1050F08BF41F00101BE
S31520002C200029D7D120E7BBF1020F7FF41DAF4FF06B
S31520002C30030B08E709F4A061B1F5806F06D0191ED1
S31520002C4018BF012111EA99213FF40EAF19F4007F34
S31520002C5003D10F9908965B1A109329F4F069002383
S31520002C6049F4C079EFE6012F7FF4FEAE0227EAE6AB
S31520002C70ABF5AE7240F25D1A013A03E519F0100980
S31520002C8029D109985646D146AA46D0F800B065689B
S31520002C905846AE422A4640F2F7812168761B00F05C
S31520002CA0C7FE23680021404661605B1921462360E8
S31520002CB0AB44FFF7ADF90028E9D05546B9EB060A33
S31520002CC03FF479AB099A55440C9B0432099201339F
S31520002CD00C93FFF726BA636840462146534580F297
S31520002CE0AF812268F618C3EB0A0AD3182360FFF7D0
S31520002CF08FF90028EFD0002E3FF45DABAD19FFF71A
S31520002D0010BA48462146FFF783F900283FF4A9ACBC
S31520002D1055460E9FC846002E3FF4A8ACFFF74BBB86
S31520002D2019F0100F1CBF994623682FD109982268E5
S31520002D30D0F800904B46117832688A18527812F0F3
S31520002D40080F40F0B080226861680139616012F88E
S31520002D50011BBAF1010A03F8011B226000F0A380CF
S31520002D6061680029E7DC404621460693FFF750F9C3
S31520002D70069B002840F097802268DCE740462146E3
S31520002D80FFF746F900287FF44BAD23681978013305
S31520002D9032688A18527812F0080F7FF441AD6268C3
S31520002DA009F101092360013AD14562603FF438AD4B
S31520002DB0002AEBDCE2E710F1020F3FF44EAC089A52
S31520002DC0B244013D002A7FF447AC0F9B089E043392
S31520002DD00F9342E41046214607920693FFF718F90F
S31520002DE0079A069B00283FF43BAE3DE69E423FF401
S31520002DF0E2AA9E1B3FF4C0A9099AAD19DDF830C09E
S31520002E00043209920CF1010C0022CDF830C01A7060
S31520002E10FFF787B9022F7FF4D0AE013713E60D9E58
S31520002E20316889453FF4C7AA61680DF14C0C01321F
S31520002E30ABA80CF809300139226009F101090822F2
S31520002E4061600021ABAE00F0BBFE4046294613AAC6
S31520002E504B46009600F0A2FDB0F1FF3F3FF4ABAA2F
S31520002E60002859D1286000F051FD0346002800F0C3
S31520002E70A4805B46AB463D461F46B9F1000F3FF4A2
S31520002E808CAB0DF14C0CA2460CEB09064C46013CD2
S31520002E90404616F8011D5246FFF7D8F8002CF6D109
S31520002EA05446FFF77ABB0999C9EB05050C9AED182C
S31520002EB00431099101320C9200221A70FFF731B9C0
S31520002EC089F800200DF14C0ACDF81CC04046514629
S31520002ED00A9B0B9EB047DDF81CC01CF0200F33D098
S31520002EE009990B68043109911860DDF830C00CF19E
S31520002EF0010CCDF830C08FE4002E3FF43DA9AD196A
S31520002F00FFF70FB919F0020300F08980099E336894
S31520002F100436C3E900AB12E610F1020F7DD16368D7
S31520002F20002B3FF723AB40462146FFF771F80028D8
S31520002F303FF41CAB5B46AB463D461F46B9F1000F3E
S31520002F407FF439AAFFF729BB1CF0040F00F0838019
S31520002F50099A1368043209921880C6E729F4F069A1
S31520002F60012700236FE5089B4046591C0A2302F0DF
S31520002F7043FA109E821B0898DDF80CC084459CBF3E
S31520002F800DF5CF7108914AF618010898C2F2000192
S31520002F9001F0A8F8C3E50E9BDDF83CC0B3EB0C02AC
S31520002FA03FF4BDAD52420896E5E740462246FFF77C
S31520002FB04DF8013D16F8011D9EE508984F440AF18B
S31520002FC0FF3A08BB0435DDF82090A8E729F4F0691C
S31520002FD04FF0010B002336E519F0010F0DD119F042
S31520002FE0020F13D009990B680431099128464FEA3C
S31520002FF0E071C3E90001FFF794B80998036804302B
S3152000300009901D60FFF78DB8994688E7099A1368DD
S31520003010043209921D60FFF784B8286823E7099ACD
S315200030200693161DD2F8009001F00EF8069B002894
S3152000303055D15046594606F087FFC9F800007EE56F
S3152000304022685644CAEB0303AD19636002EB0A03F8
S315200030502360FFF766B81CF0010222D11CF0020F94
S315200030601FD00B9845F24173C2F200035146984295
S3152000307040460A9B39D002F06BFA099A136804324B
S3152000308009925960186030E73246216800F0D0FC7A
S31520003090626823685546921BCA469E19626026605E
S315200030A010E6099E33680436099618601DE713ADAD
S315200030B003E016F8011DFEF7C9FFB5424046224639
S315200030C0F7D3FFF759B813AD03E016F8011DFEF745
S315200030D0BDFFB54240462246F7D3FFF74DB8184606
S315200030E000F0FAFFC9F8000029E502F0D3FBC4E797
S315200030F013AD03E016F8011DFEF7A8FFB5424046C2
S315200031002246F7D3FFF738B801F144032DE9F04101
S315200031100C46496B994218D0A56B6F003A4600F0D1
S31520003120B9FD064668B100EB05082A4640463146F9
S3152000313000F07EFCA763C4F8008000206663BDE82B
S31520003140F0814FF0FF30BDE8F0814FF48061FEF74B
S3152000315063FB03460028F4D094F8461000F57E72EF
S31520003160053260634FF48060A0639170002094F86C
S315200031704510517094F8441083F8FD132260BDE881
S31520003180F08100BFB1F1FF3FF8B50C461546064663
S315200031903AD010B18369002B41D04AF62413C2F2EB
S315200031A000039D4208BF75680ED04AF64413C2F24A
S315200031B000039D4208BFB56806D04AF66413C2F2E2
S315200031C000039D4208BFF568AB8999B211F4005FF0
S315200031D01CD04FF6DF72C0F2000201EA0202AA8179
S315200031E093B213F0040F3ED06B6BE7B2D3B16A688B
S315200031F0AB6B9A4241DA2B683C465A1E2A6003F88A
S31520003200017C6B6801336B602046F8BD43F40053A4
S315200032106A6EAB8199B222F400536B66D9E700F04F
S31520003220C1F9BAE72B69002B30D02A68934204D221
S3152000323012F8014C531EBC4210D069682B463C46FE
S31520003240EA6303F8467F05F14402296420466A634F
S3152000325001222B606A600322AA63F8BD6A682B608C
S31520003260531C6B60D0E713F0100F0CD013F0080F2F
S315200032700ED142F00402AA81B6E730462946FFF76E
S3152000328043FF0028B7D04FF0FF34BDE72A68D4E7C4
S315200032903046294600F016F80028F4D1A9894FF6C1
S315200032A0F772C0F20002A86101EA0202A860AA81B0
S315200032B0DFE700BF4AF6FC330A46C2F200030146A6
S315200032C018685FE70B692DE9F0410C468046002B14
S315200032D071D010B18369002B78D04AF62413C2F23C
S315200032E000039C4208BFD8F8044010D04AF6441385
S315200032F0C2F200039C4208BFD8F8084007D04AF61D
S315200033006413C2F200039C4208BFD8F80C40A3897C
S315200033101AB212F0080F35D1626843F40063A38114
S31520003320002A5EDDE66A002E45D09BB213F4805259
S3152000333018BF656D59D013F0040F4AD100234046BB
S31520003340216A2A46B047854238D1A1894FF2FF73B8
S315200033502269C0F2000301EA03030021616013F42D
S31520003360805F616BA381226018BF656519B304F184
S315200033704403994202D0404600F098F90020606349
S31520003380BDE8F0812669B6B125682660AD1B12F02E
S31520003390030F0CBF63690023A3600AE032462B4665
S315200033A0A76A4046216AB8470028C0EB05050644AF
S315200033B004DD002DF2DC0020BDE8F081A3894FF06A
S315200033C0FF3043F04003A381BDE8F08100F0EAF826
S315200033D083E76268636BAD1A002BAFD0236CED1ABE
S315200033E0ACE7226C002A9DDCE5E701234046216AF2
S315200033F0B047B0F1FF3F054602D0A389E66A9AE7B7
S31520003400D8F800301D2BD6D0A38943F04003A381E2
S31520003410BDE8F081014628B14AF6FC33C2F200032A
S3152000342018684FE74AF2EC7343F2C521C2F2000353
S31520003430C2F20001186800F019BA00BF704700BF39
S31520003440704700BF704700BF704700BF002070471D
S31520003450002070474AF6FC3343F25141C2F2000382
S31520003460C2F20001186800F02BBA00BF4AF6FC33FE
S3152000347043F24D41C2F20003C2F20001186800F087
S315200034801FBA00BF48F2C501C2F2000100F018BA07
S315200034904AF2EC73C2F200031868F3E710B504464B
S315200034A000235C30A1811946E281082223606360F3
S315200034B0A360636623616361A36100F081FB44F22C
S315200034C0E51044F2A91144F2811244F27913C2F2B2
S315200034D00000C2F20001C2F20002C2F200036062E2
S315200034E0A162E2622363246210BD00BF70B5682525
S315200034F00E4605FB01F505F10C01FEF78DF9044694
S3152000350048B100F10C03002146602A461846216086
S31520003510A36000F055FB204670BD00BF4AF2EC7355
S31520003520C2F2000370B51D680646AB69002B2AD08F
S31520003530D8356B68AC68013B03D520E06834013B85
S315200035401DD4B4F90C20002AF8D100254FF0FF3302
S31520003550656604F15C00E38129464FF0010325608E
S31520003560A3810822A560656025616561A56100F0DB
S3152000357027FBE5646563A563A564204670BD2868BE
S3152000358028B10546D5E7284600F00CF8D0E73046A6
S315200035900421FFF7ABFF28600028F2D10C23044654
S315200035A03360EAE770B58669044606B170BD43F21A
S315200035B085430125C2F20003C0F8D8608362C0F8B3
S315200035C0DC60C0F8E0608561FFF7A8FF60602046F8
S315200035D0FFF7A4FFA0602046FFF7A0FF3246042194
S315200035E02346E0606068FFF759FF2A46A068092154
S315200035F02346FFF753FF2346E06812210222BDE847
S3152000360070404BE7F8B54AF6F044C2F200040F4684
S315200036100546FEF7D3FBA3685E6826F0030606F58B
S315200036207E630F33DF1B3F0B013F3F03B7F5805F00
S3152000363007DB00212846FEF74BFCA368F3188342DC
S3152000364004D02846FEF7BCFB0020F8BD7942284668
S31520003650FEF73EFCB0F1FF3F10D0A2684BF25413A8
S31520003660C2F20003F61B46F00106284656601A6889
S31520003670D71B1F60FEF7A4FB0120F8BD00212846BA
S31520003680FEF726FCA368C21A0F2ADADD4BF2F804ED
S315200036904BF25411C2F20004C2F2000142F00102C0
S315200036A02468001B08605A60CBE700BF2DE9F04173
S315200036B005460C46002900F08880FEF77FFBA4F122
S315200036C008024AF6F0405668C2F2000026F00103CE
S315200036D0D0F808C0D1188C454F6827F0030700F0B2
S315200036E0958016F001064F605FD00026CC196468DD
S315200036F014F0010F06D1DB19002E7AD08C68C96828
S315200037008C60E16043F00101D3505160002E47D117
S31520003710B3F5007F5BD3590A04299EBF4FEA931C59
S315200037200CF1380C4FEACC0428D914299CBF01F19E
S315200037305B0C4FEACC0421D954299EBF4FEA133C97
S315200037400CF16E0C4FEACC0418D9B1F5AA7F9EBFB6
S315200037504FEAD33C0CF1770C4FEACC040ED940F259
S31520003760545C614595BF4FEA934C4FF47C740CF141
S315200037707C0C4FF07E0C98BF4FEACC040419A1684C
S31520003780A14203D164E089688C4204D0486820F0C5
S3152000379003008342F7D3CB68D3609160CA609A60F6
S315200037A02846BDE8F041FEF70BBB54F8084C00F163
S315200037B0080C121B1B199468644547D0D2F80CC01C
S315200037C0CCF80840C4F80CC090E7BDE8F081DB08CF
S315200037D04FF0010C466800EBC3019B100CFA03F373
S315200037E0D1608C6846EA030343609460E2608A6095
S315200037F0D6E78C681C4FBC4281D1D35043F00103DD
S31520003800E260A26053609460D460C9E7FB1816F0AA
S31520003810010F07D154F8081C521A5B18D468916816
S31520003820A160CC604BF2FC018260C2F2000143F041
S31520003830010050600A689342B2D34BF250132846D7
S31520003840C2F200031968FFF7DDFEA9E701264DE75E
S31520003850012644684FEAAC0C0B4606FA0CFC44EAF7
S315200038600C04446098E700BFF8AC00202DE9F84529
S3152000387007468A46FFF7E2FD17F1D80608BFB0468D
S3152000388018D04FF000087568B468013D0FD4B4F91C
S315200038900C304BB1B4F90E3021463846B3F1FF3F18
S315200038A002D0D04748EA00086834013DEFD5366893
S315200038B0002EE8D1FFF7C4FD4046BDE8F88500BFDD
S315200038C02DE9F04106468846FFF7B8FDD83608BFF1
S315200038D0374615D000277568B468013D0DD4B4F974
S315200038E00C303BB1B4F90E302046B3F1FF3F01D086
S315200038F0C04707436834013DF1D53668002EEAD12A
S31520003900FFF79EFD3846BDE8F08100BFFF2809D8A5
S315200039104BF20413C2F200031B68C018407800F073
S3152000392008007047002070474AF68413C2F200034D
S31520003930186870470048704788A9002000487047DB
S3152000394088A9002070B505460E46144672B14AF283
S31520003950F0711046C2F2000100F056FC58B94AF246
S31520003960F0702C62C2F20000EE6170BD4AF2F07077
S31520003970C2F2000070BD4AF630212046C2F2000194
S3152000398000F042FC0028EAD0002070BD4AF6FC3345
S315200039900A46C2F2000301461868D3E730B583B061
S315200039A005469446069C5AB1009400F025F8B0F1DD
S315200039B0FF3F03D1002323608A232B6003B030BD51
S315200039C04AF630226146C2F200020123009400F03A
S315200039D013F8ECE730B54AF6FC3483B0C2F20004A3
S315200039E005468E46944600932068294672466346CD
S315200039F0FFF7D4FF03B030BD82B00846A1B1111E37
S31520003A0018BF0121002B14BF002301F0010343B985
S31520003A1062B1137803601078003818BF012002B015
S31520003A2070476FF00100FAE701A8E8E71046F6E7CD
S31520003A30032A2DE9F0070BD83AB1002311F803C069
S31520003A4000F803C001339342F8D1BDE8F007704770
S31520003A5082180C46034603E014F8011C03F8011CE7
S31520003A6003F003061946A44601330134002EF3D190
S31520003A701CF00304634608BFC1EB020C68D0654204
S31520003A80C4F1040A0CEB050733464FEACA0A5CF870
S31520003A9005604FEAC408551A08E057F8044F264631
S31520003AA004FA0AF449EA0404CC5004335C18032DC2
S31520003AB026FA08F9A5F104050CEB0306EDDC002334
S31520003AC002E0F15CE154013319199142F9D3BCE7C4
S31520003AD053F8404C41F8404C53F83C4C41F83C4C90
S31520003AE053F8384C41F8384C53F8344C41F8344CA0
S31520003AF053F8304C41F8304C53F82C4C41F82C4CB0
S31520003B0053F8284C41F8284C53F8244C41F8244CBF
S31520003B1053F8204C41F8204C53F81C4C41F81C4CCF
S31520003B2053F8184C41F8184C53F8144C41F8144CDF
S31520003B3053F8104C41F8104C53F80C4C41F80C4CEF
S31520003B4053F8084C41F8084C53F8044C41F8044CFF
S31520003B501C460D4640334031BCF13F0FACF1400CC2
S31520003B60B6DC21462B46541B0FE051F8105C43F877
S31520003B70105C51F80C5C43F80C5C51F8085C43F877
S31520003B80085C51F8045C43F8045C0F2C0D469C46F7
S31520003B9001F1100103F11003A4F11004E5DCCCEBD4
S31520003BA00201002303E0EC584CF8034004335E196D
S31520003BB0032903EB0C04A1F10401F4DC7FE700BF29
S31520003BC0032AC9B230B407D822B10023C154013325
S31520003BD09342FBD130BC704700EB020C034601E058
S31520003BE003F8011C03F003041A460133002CF7D115
S31520003BF04FF00133C2EB0C0403FB01F31FE042F844
S31520003C00403C42F83C3C42F8383C42F8343C42F8CE
S31520003C10303C42F82C3C42F8283C42F8243C42F8FE
S31520003C20203C42F81C3C42F8183C42F8143C42F82E
S31520003C30103C42F80C3C42F8083C42F8043C15463D
S31520003C4040323F2CA4F14004D9DC2A46C5EB0C04B3
S31520003C5007E042F8103C42F80C3C42F8083C42F897
S31520003C60043C154610320F2CA4F11004F1DC2A4630
S31520003C70C5EB0C0501E042F8043C14460432032D42
S31520003C80A5F10405F7DC01E004F8011B6445FBD32C
S31520003C90A0E700BF2DE9F04F914683B007460E46B8
S31520003CA0002900F03A81A1F1080809F10B04FEF77A
S31520003CB085F8162CD8F804100B4600F2A0801022A6
S31520003CC0002514464C4538BF45F00105002D40F02F
S31520003CD02A8121F0030A9245A2BF4046554608F1A3
S31520003CE0080875DA4AF6F04308EB0A00C2F2000328
S31520003CF0D3F808E0864500F01A81D0F804C02CF0ED
S31520003D00010B8344DBF804B01BF0010F7CD0AC46DA
S31520003D10284611F0010F40F09B8056F8081CC1EB95
S31520003D20080BDBF8045025F00305002800F0DD80A1
S31520003D30704500F01F8105EB0A030CEB0305954245
S31520003D40B8BF1D46C0F2D28081685B46C068AAF122
S31520003D500402242A8160C86053F8081FDBF80C008F
S31520003D608160C86000F2D080132A9C4621D9314652
S31520003D700BF1100C51F8040BCBF8080070680E1DDF
S31520003D801B2ACBF80C0014D94868311D0BF1180CEE
S31520003D90CBF8100070680E1D242ACBF8140008D129
S31520003DA04A680BF1200CCBF8182072680836CBF83D
S31520003DB01C20314698466246584651F8043B42F844
S31520003DC0043B7368CCF804304B685360DBF804304E
S31520003DD0C4EB050CBCF10F0F26D8421903F00103E2
S31520003DE043EA05054560536843F0010353603846AE
S31520003DF04546FDF7E5FF284603B0BDE8F08F24F0E1
S31520003E0007042246E50F5DE72CF0030C0CEB0A05B0
S31520003E109542FFF67EAF82680B46C168404608F1A0
S31520003E2008088A60D160D3E7011903F0010301EB8A
S31520003E300C0243EA04044CF0010344604B6038460C
S31520003E405368083143F001035360FFF72FFCCEE798
S31520003E5049463846FDF7E0FC0546002841D0D8F80B
S31520003E600430A0F1080223F0010141448A4200F007
S31520003E70D780AAF104023146242A78D8132A034689
S31520003E8021D9344654F8043B211D40F8043B031D38
S31520003E90D6F804C01B2AC5F804C014D9D4F804E007
S31520003EA01C1D01F1040CC0F804E048680CF1040163
S31520003EB05860231D242A06D1DCF8042062604A6853
S31520003EC008315A60083308461A4650F8044B42F81F
S31520003ED0044B496859604368536031463846FFF7BA
S31520003EE0E5FB3846FDF76CFF85E755449542AFDB89
S31520003EF05B46DBF80C00AAF1040253F8081F242ABB
S31520003F008160C8607FF630AF18463146984604F087
S31520003F10E3FC5846DBF804305AE7114603B0BDE807
S31520003F20F04FFDF779BC0C2300253B6063E7DEF8F4
S31520003F30045004F1100B25F0030C0CEB0A00584535
S31520003F40B8BF7046FFF6E5AE08EB0402011B41F050
S31520003F5001019A6051603846D8F80410354601F0C0
S31520003F6001031C43C8F80440FDF72AFF43E704F089
S31520003F70B3FCB2E7554404F11001AC448C45B5DBE3
S31520003F805D46DBF80C00AAF1040255F8081F242A26
S31520003F908160C8604CD8132A284624D931460BF1B3
S31520003FA0100051F804EBCBF808E0D6F804E00E1D1B
S31520003FB01B2ACBF80CE016D9D1F804E0311D0BF101
S31520003FC01800CBF810E0D6F804E00E1D242ACBF812
S31520003FD014E008D14A680BF12000CBF8182072684B
S31520003FE00836CBF81C203146024651F804EB42F83D
S31520003FF004EB76684660496851600BEB0402C4EB1B
S315200040000C0141F001019A6051603846DBF804103A
S3152000401001F001031C43CBF80440FDF7D1FEEAE68C
S315200040205568404608F1080825F003055544CFE6B3
S31520004030314628460093CDF804C004F04DFCDDF847
S3152000404004C0009BD9E700BF02464042104321F03E
S31520004050004141EAD070C0F1FE4000F57000C00F6B
S31520004060704700BF0246084670B410F8014B5E2C1C
S315200040702ED000210023D1540133B3F5807FFAD10D
S315200040808CB181F0010C014602F804C0084610F8F4
S31520004090013B2D2B09D05D2B01D013B9084670BCEE
S315200040A070471C46EFE70138F9E74D785D2D14BFC0
S315200040B000260126A542B8BF46F00106002EF0D103
S315200040C01319013403F801CFA542FADC0231DDE7EA
S315200040D04C7801300121CDE740F20000C7F6C070D0
S315200040E0704700BF0EB44AF6FC3330B59CB01FAC07
S315200040F0C2F20003054601A954F8042B4FF0FF3CF9
S3152000410018684FF40273ADF81030234605950195D3
S315200041106FF00045ADF812C0069503951B9401F08B
S315200041203DFD019B00221A701CB0BDE8304003B053
S31520004130704700BF0CB40B4610B59CB01EAC01A94D
S3152000414005934FF4027C54F8042B01934FF0FF3370
S31520004150ADF8123023461B946FF00044ADF810C022
S315200041600694039401F01AFD019B00221A701CB0DC
S31520004170BDE8104002B07047B1F90E1002F054BFEE
S3152000418010B50C46B1F90E1004F056FBA389B0F118
S31520004190FF3F15BF606523F4805343F48053A3810A
S315200041A018BFA38110BD00BF2DE9F0411D468B89A4
S315200041B00C461646074613F4807F06D00223B1F933
S315200041C00E10002204F038FBA38923F480533846CE
S315200041D0A3813246B4F90E102B46BDE8F041FCF718
S315200041E093BD00BF10B50C46B1F90E1005F07CF852
S315200041F0002803DB636D1B18636510BDA38923F4B8
S315200042008053A38110BD00BF80EA010212F0030F84
S315200042103AD110F0030220F0030021F0030150F8F8
S3152000422004CB08BF51F8043B0DD082F003024FEABD
S31520004230C2026FF07F4323FA02F251F8043B4CEAA4
S31520004240020C43EA020300BFACF101329C4501BFD8
S3152000425022EA0C0212F0803F50F804CB51F8043BBE
S31520004260F2D04FEA0C604FEA1C2C012828BFB0EB95
S31520004270036F08BF1B0AF4D003F0FF034FEA106058
S31520004280A0EB0300704700BF10F0030F0AD010F810
S31520004290012B11F8013B012A28BF9A42F4D0A2EB48
S315200042A0030070474DF8045D4DF8044D4FF00102B0
S315200042B042EA022242EA024201F0030C21F0030103
S315200042C050F8044B51F8045BBCF1020F26D04BD8B2
S315200042D024F07F4CBCEB152FA4EB020323EA040346
S315200042E00DD113EAC21308BF51F8045B0AD18CEA38
S315200042F0040CBCEB056F0CD150F8044BE8E74FEAF1
S3152000430015255CE033F07F4352D10D784FEA146CCB
S3152000431055E04FEA146C05F0FF0550E04FEA044CD7
S31520004320A4EB02034FEA1C4C23EA0403BCEB154F13
S3152000433017D113EAC21308BF51F8045B07D18CEAE0
S31520004340040CBCEB054F08D150F8044BE6E71B04E0
S315200043502ED10D884FEA144C31E04FEA05454FEA3D
S31520004360144C4FEA15452AE004F0FF0CBCEB156F00
S31520004370A4EB020323EA04030DD113EAC21308BFF8
S3152000438051F8045B0AD18CEA040CBCEB052F0AD148
S3152000439050F8044BE8E74FEA156510E014F0FF0FDC
S315200043A006D051F8045B4FEA142C25F07F4506E031
S315200043B04FF000005DF8044B5DF8045B70470CF08D
S315200043C0FF0205F0FF00012828BF904204BF4FEAF4
S315200043D01C2C2D0AF3D0A2EB00005DF8044B5DF8EF
S315200043E0045B7047000000002DE9F04FA3B004469F
S315200043F000260A920A4600271F91CDE918671078F1
S315200044002D2800F22381DFE810F0B20021012101DE
S315200044102101210121012101210121011E011E016C
S315200044201E011E011E01210121012101210121015F
S315200044302101210121012101210121012101210146
S31520004440210121012101210121011E012101210139
S315200044502101210121012101210121012101210126
S315200044601B012101C30000273E463D464FF0000CAC
S315200044700692E3461095CDF810C0652814BF002299
S315200044800122452808BF42F00102002A00F0F980E7
S3152000449045EA0C0252EA080269D01F9901F1010A85
S315200044A0CDF87CA048782B2800F021852D2800F017
S315200044B0B88300220892A0F13002092A84BF1F91F6
S315200044C04FF0000A48D8302807D11F9A109B013296
S315200044D01F9210783028FAD01093A0F13102082AC2
S315200044E000F2CF801F9AA0F1300A531C0B93099239
S315200044F01F9350782F281ADD392818DC931C109A20
S31520004500A9460B921A4602E0392800F325861F9207
S31520004510A0F1300310780AEB8A0A154601322F28BB
S3152000452003EB4A0AF0DC0B9A0B954D461092099A3A
S3152000453044F61F690B9B9B1ACA45D4BF0022012251
S31520004540082BC8BF42F001020993089B002A18BF16
S31520004550CA460BB1CAF1000A002D40F097805CEAEA
S31520004560080C40F01981049F002F00F09F82002341
S315200045701F911A460F930A9F0FB11F9939600F9802
S3152000458008B102F100421846114623B0BDE8F08F6B
S3152000459001200F9001321F9210780028E7D0302892
S315200045A018BF4FF0000858D02F2840F35F853928D0
S315200045B03FF759AF00273E463D4602E039283FF7F0
S315200045C055AF06EB8603082D00EB4303D8BFA3F1B6
S315200045D0300607DD07EB87030F2D00EB4300D8BF1E
S315200045E0A0F130070135AB181F93505D2F28E5DC6D
S315200045F09C4610952E2840F0D280109B0CF101008D
S315200046001F909CF80100002B00F02B824FF0000C2D
S315200046101D46E3460692A0F1300ABAF1090F00F2D0
S3152000462042821F980CF1010C04950890BAF1000FF4
S3152000463040F02285049D0898421C1F924078EAE7A4
S3152000464000270F97A6E701321F92D8E600233028CD
S315200046500F9318BF4FF00008A6D15378551C582B3E
S3152000466000F0C383782B00F0C0832A461F950135BE
S3152000467010783028F9D0002800F08E804FF00108FD
S3152000468092E74FF0000A002D3FF469AF3046CBEB9E
S315200046900A0ACDF820A005F0FFF8DDF84090102D8D
S315200046A0B4BFA8464FF01008B9F1000F08BFA946BD
S315200046B0B8F1090FCDE9180116DD4AF69023C2F2AA
S315200046C0000303EBC80353E9122305F05BF9824686
S315200046D038468B4605F0E0F802460B4650465946CA
S315200046E004F09EFFCDE918010F2D60DC089F002FF6
S315200046F04FD040F337850898162800F3FA84089A95
S315200047004AF69023C2F20003DDE9180103EBC20347
S31520004710D3E9002305F036F903460A462BE7494636
S31520004720069805F0C9FB05F0C7F802460B46069821
S31520004730494604F073FF099ACDE90401002A40F0A6
S315200047403C83189B002B40F038832BF07F4323F4C7
S315200047507003002B40F031830FF25C73D3E9002302
S3152000476005F082FB002800F0678120461E9904F0A0
S315200047709BFA2046394604F097FA2046314604F043
S3152000478093FA20460B9904F08FFA2046414604F00E
S315200047908BFA189B199AEEE600231A46EBE64FF0A1
S315200047A0000C0692109DE346CDF810C065E6089FE2
S315200047B0C8EB050ABA44BAF1000F40F34F841AF049
S315200047C00F020DD04AF69023DDE91801C2F200034C
S315200047D003EBC203D3E9002305F0D4F8CDE9180191
S315200047E03AF00F0A40F0B681DDE91823CDE904231B
S315200047F02B4606994A462046009604F027FD089F38
S315200048007F42119700F10C030B9010930B9841688F
S31520004810204604F065FA0B990A6910990232920033
S3152000482007460C30FFF704F9DDE90423204621A9C9
S31520004830009120A9019104F089FA01211E902046B9
S3152000484004F060FC089A002A0646C0F22C82DDF8A5
S315200048502090002293464B46219D6FF47F7020992D
S31520004860002DACBF02EB050B5B1BCAEB050505EB68
S31520004870010C8445B6BF05F58661C1F136010331C9
S3152000488003EB0A0501EB0B086D18A845B4BF434698
S315200048902B465B45A8BF5B46002BC2BFC3EB0B0B69
S315200048A0C3EB0808ED1A8AB13146204604F078FC9D
S315200048B01E9A06462046314604F08AFB1E99034678
S315200048C02046039304F0F0F9039B1E93B8F1000FE2
S315200048D005DD424620461E9904F01CFB1E90B9F1C8
S315200048E0000F05D039464A46204604F059FC0746B3
S315200048F0002D05DD39462A46204604F00BFB0746E7
S31520004900BBF1000F05DD31465A46204604F002FB76
S3152000491006461E993A46204604F080FA0022314681
S31520004920C3688046C260099304F084F80028C0F268
S31520004930E18200F02E834046314604F015F900222C
S315200049404FF08043CDE9060105F098FA002800F0E3
S315200049509481099A002A00F0AC8140F20009DDF822
S3152000496064C0C3F6F07940F200030022C3F6F07368
S31520004970CDE91A230022069240F2000540F20003F8
S31520004980C7F6F075C7F6E0730CEA050540F2000B92
S315200049909D42C7F6F07B00F0C581BAF1000318BF2F
S315200049A00123B5F1D46F8CBF002303F001030BB3B1
S315200049B0069849460FF20853D3E9002305F05EFA1C
S315200049C098B14946069805F09FFA002808BF0120AD
S315200049D004F062FF099B06908946002B00F00282B4
S315200049E00B4606981946CDE91A011B9B03F1D6639F
S315200049F05B1B1B93DDE91A01CDE90C01DDE90401FE
S31520004A0004F038F802460B46DDE90C0104F0BAFF43
S31520004A10DDE9042304F004FECDE91801DDF864B0D5
S31520004A20BAF1000F08D140F20003C7F6F0730BEA83
S31520004A3003039D423FF473AE20461E9904F034F9D9
S31520004A402046394604F030F92046314604F02CF948
S31520004A502046414604F028F9DDE91801CDE9040194
S31520004A60D4E6302818BFDDF840C00CD10CF1020581
S31520004A70DDF840C063461F950CF1010C15F8010BBB
S31520004A803028F8D01093A0F13105082D00F2C3800C
S31520004A901F9AE3460023A0F1300A04934FF0010C3D
S31520004AA006920892C2E501230493E6E449382528B4
S31520004AB03FF65DAD01A252F820F000BF574C002012
S31520004AC06F4500206F4500206F4500206F45002070
S31520004AD0334C00206F4500206F4500206F45002095
S31520004AE06F4500206F4500206F4500206F45002050
S31520004AF06F4500206F4500206F4500206F45002040
S31520004B006F4500206F4500206F4500206F4500202F
S31520004B106F4500206F4500206F4500206F4500201F
S31520004B206F4500206F4500206F4500206F4500200F
S31520004B306F4500206F4500206F450020574C002010
S31520004B406F4500206F4500206F4500206F450020EF
S31520004B50334C0020BAF59A7F00F377824FEA2A1762
S31520004B604AF6683B012FDCBF4FF0000AC2F2000B69
S31520004B701FDD2146C2F2000BDDE91823A8464FF0BF
S31520004B80000A5C460D4617F0010F104619460AF139
S31520004B90010A4FEA670705D0D4E9002304F0F2FEA4
S31520004BA002460B460834012FEDDC2C464546CDE95E
S31520004BB01823199A0BEBCA03A2F154721992DDE954
S31520004BC01801D3E9002304F0DDFE40F20003C7F606
S31520004BD0F07340F20002C7F6A042CDE918011999F8
S31520004BE001EA0303934200F2308240F20002C7F644
S31520004BF09042934240F2FD824FF6FF734FF0FF3210
S31520004C00C7F6EF73189219934FF0000ADDE91801E1
S31520004C10CDE90401ECE500250692AB46012204927B
S31520004C202BE4012308930AF101021F929AF801004E
S31520004C3041E41F9A9E4810F8014C0130002C00F0E8
S31520004C40E38253780132402B02DD5A2BD8BF203322
S31520004C50A342F0D08BE41F9A964810F8014C0130FD
S31520004C60002C00F0E98253780132402B02DD5A2BCA
S31520004C70D8BF2033A342F0D079E440F20003DDE927
S31520004C8006010022C3F6E07304F07CFE099A069022
S31520004C9089460AB901F10041069A0B46DDF864C03F
S31520004CA0CDE91A2368E6119A4FF000094B46934640
S31520004CB0D2E5189B002B74D1DDF864C02CF07F431D
S31520004CC0624623F47003F3B940F20003DDE90601DE
S31520004CD00022C3F6F073CDF80CC005F0C5F8DDF858
S31520004CE00CC0002800F0F08040F2000340F20009DA
S31520004CF0CBF6E073C3F6E0790022069210461946F9
S31520004D00CDE91A0138E640F2000940F20001CBF65F
S31520004D10F07100209446CDE91A01C3F6F0790021FE
S31520004D20069129E6ACF154731993DDE91A23DDE9DE
S31520004D301801CDE91223DDE90423CDE90C01CDE9E3
S31520004D40162303F097FE02460B46DDE9120104F016
S31520004D5019FE02460B46DDE90C0104F061FC4FF614
S31520004D60FF7CC7F69F4CCDE91801199A02EA0B037E
S31520004D7063459CBF02F1547BCDF864B07FF650AEFC
S31520004D804FF6FF73179AC7F6EF739A4200F05081D9
S31520004D904FF6FF734FF0FF32C7F6EF731892199351
S31520004DA04AE6012B199AAED1002AACD10023002263
S31520004DB0CDE9182322232360D7E4DDE9040138A3B3
S31520004DC0D3E9002305F050F800287FF4CEACDDE9C6
S31520004DD0040135A3D3E9002305F064F800283FF445
S31520004DE02BAEC2E401F10043FBE50F9F4BF21816F0
S31520004DF0C2F2000620461FA932461DAB01971EAF00
S31520004E00009703F0DDF910F0070807463FF4C4AC1D
S31520004E10B8F1060F00F068811E9A3AB1316814A8DD
S31520004E2003F0EEFE20461E9903F03EFF1D9BB8F1CF
S31520004E30060F0BD8DFE808F02D211C1404212D00C5
S31520004E406FF0004319934FF0FF33189317F0080FB4
S31520004E503FF49FAC199A189B42F00042FFF78BBB98
S31520004E6040F200030022C7F6F07318921993EDE77B
S31520004E70149B1893159B1993E8E703F58663159AF7
S31520004E801499033322F4801242EA0353199318919A
S31520004E90DCE7002318931993D8E700BFAFF300800F
S31520004EA09535A094FFFFDF3F35E5AF350000E03FA5
S31520004EB0FDA90020F1A900209535A094FFFFCF3F42
S31520004EC00000C0FFFFFFDF4140F20003DDE90601DD
S31520004ED00022C3F6E073CDF80CC004F053FDDDF8D4
S31520004EE00CC006908946024601F1004306E70023DE
S31520004EF0089398E6099B002B7CD1189B002B79D12F
S31520004F00199A22F07F4323F47003002B72D140F2CA
S31520004F100005C7F6F07502EA0505B5F1D66F69D921
S31520004F20D8F814301BB9D8F81030012B62DD414671
S31520004F300122204603F0EEFF3146804603F07AFD3B
S31520004F40002857DDBAF1000F00F06B81B5F1D66F5E
S31520004F5000F26781B5F15C7F7FF628AF40F200034F
S31520004F600022C3F6501316921793DDE91601DDE9E8
S31520004F70042304F007FDCDE91801199B002B7FF4CB
S31520004F80F4AB189B002B7FF4F0AB22232360FFF7B2
S31520004F90ECBB0998002800F0CC80199A4FF6FF73D5
S31520004FA0C0F20F0322F07F4121F4700199422AD1E9
S31520004FB0189BBAF1000F00F0AB8140F20001C7F652
S31520004FC0F07102EA0101B1F1D46F00F2A181090D5D
S31520004FD0C1F16B004FF0FF3181408B4214D140F27A
S31520004FE000030021C7F6F073189102EA030303F5C4
S31520004FF080131993BAF1000F3FF4B7ABDDE91823FC
S31520005000CDE90423AAE7189B13F0010FF2D00999E2
S31520005010002900F0DA80DDE9040103F02BFD0246C9
S315200050200B46DDE9040104F0FBFACDE91801E1E7BE
S31520005030169BB3F1FF3F7FF4ABAE2223CDF864B0CD
S315200050402360223B1893FFF790BB40F200022223F5
S31520005050C7F6F07223600023FFF78DBA40F09980DF
S31520005060DDE91801CDE90401FFF7C2BB002794460C
S315200050703E461097FFF7BEBABCF1010FE3441DD0A0
S315200050800498109D00EB0C09024609F1FF3902E055
S3152000509046004A450BD0013206EB8600531E082BEC
S315200050A0F6DD07EB8703102AD8BF5F00F1E7049AE5
S315200050B0109594440CF1FF3CCDF810C0049B5D1C68
S315200050C0082BDEBF06EB86064FF0000C0AEB4606E1
S315200050D07FF7B1AA102D4FF0000C3FF7ACAA0A2299
S315200050E002FB07A7FFF7A7BA00231F951A46FFF76B
S315200050F042BAC5F10F07089807F1160398423FF701
S3152000510056AB4AF69024DDE91801C2F2000404EBFE
S31520005110C703D3E9002304F035FC089AD71B04EB18
S31520005120C704D4E9002304F02DFC03460A46FFF702
S3152000513022BA199A22F07F4323F47003002B7FF4BE
S3152000514062AF189B002B7FF45FAF40F20005C7F6D5
S31520005150F07502EA0505F5E60B9B0B954D46109377
S31520005160FFF7E5B9089B13F1160FFFF620ABC3EB4B
S3152000517043724AF69023C2F20003DDE9180103EBDD
S31520005180C203D3E9002304F027FD03460A46FFF7AE
S31520005190F2B9CAF1000717F00F020DD04AF6902394
S315200051A0DDE91801C2F2000303EBC203D3E90023B1
S315200051B004F012FDCDE918013F1157D1DDE918237E
S315200051C0BA46CDE90423FFF713BBDDE9040103F05A
S315200051D051FC02460B46DDE9040104F01FFA0022C9
S315200051E00023CDE9180104F035FE00283FF402AF74
S315200051F0DCE501F154711991DDE918234FF0000A1D
S31520005200CDE90423FFF7F4BA531C1F935378282BB8
S3152000521000F0848040F200020023CFF6F872FFF7F8
S31520005220AAB9A5F580134FF0FF3218926FEA1353EF
S315200052306FEA03531993DDE6454811461F9210F88D
S31520005240014C0130002C66D04B780131402B02DD19
S315200052505A2BD8BF2033A342F1D001321F9240F2FD
S3152000526000020023C7F6F072FFF785B91F2F49DC2D
S3152000527017F0100A18BF4FF06A0A002F16DD4AF6FB
S31520005280C818DDE91823C2F2000817F0010F1046EE
S31520005290194605D0D8E9002304F074FB02460B46D4
S315200052A07F1008F10808F0D1CDE91823BAF1000FD4
S315200052B01DD0199A40F20003C7F6F07302EA0303E1
S315200052C01B0DC3F16B03002B11DD1F2B36DD0021D7
S315200052D0342BC8BF4FF05C731891C8BF199306DCF6
S315200052E04FF0FF31203B11FA03F31A401992DDE902
S315200052F0180100220023CDE9040104F0ABFD0028AB
S315200053003FF476AA0023222222601A46FFF733B9F9
S315200053104FF0FF3161E601311F91A0E71FA80D492B
S3152000532014AA03F0ABF905287FF474AF159A149BE1
S3152000533042F0FE4242F47002FFF71DB94FF0FF32F1
S3152000534012FA03F3189A02EA03031893CFE700BF71
S31520005350F5A900202CB10020F8B54AF6FC34C2F29B
S3152000536000040A4601462068FFF73EF80F46064627
S3152000537004F0EAFD0021054604F07AFE58B13046D5
S3152000538039460022002304F065FD20B92368222235
S315200053901A602846F8BD4FF6FF712846C7F67F717A
S315200053A004F08EFE58B14FF6FF73304639464FF063
S315200053B0FF32C7F6EF7304F075FD0028E6D02846C5
S315200053C06FF4000104F05EFE0028E2D03046394634
S315200053D04FF0FF326FF4801304F046FD0028D5D03D
S315200053E02846F8BD4AF6FC330A46C2F200030146B7
S315200053F01868FEF7F9BF00BF2DE9F04F4BF20415F0
S31520005400C2F2000583B00C461F46D5F800800E4632
S315200054100190009216F8015B08EB050393F801B0A2
S315200054201BF0080BF6D12D2D65D02B2D08BF16F8B5
S31520005430015BD7F1010338BF0023102F14BF1A4692
S3152000544043F0010232B1302D66D01BB1302D0CBF96
S3152000545008270A27BBF1000F394614BF4FF0004931
S315200054606FF00049484604F0C5F848468A46394652
S3152000547003F092FF00218C4608EB0502A5F13003CC
S31520005480527812F0040F08D112F0030F20D012F038
S31520005490010F14BF37235723EB1A9F4218DD84458B
S315200054A094BF0022012252EAD1714FF0FF310CD174
S315200054B0844514BF002201225345D4BF002202F0A6
S315200054C0010212B907FB0C3C012116F8015BD3E758
S315200054D0B1F1FF3F14D0BBF1000F09D16046009B0C
S315200054E01BB101B1741E009A146003B0BDE8F08FA1
S315200054F0CCF10000F3E716F8015B4FF0010B98E7BB
